{
  "contractName": "CreateDiamond",
  "abi": [
    {
      "constant": true,
      "inputs": [
        {
          "name": "interfaceId",
          "type": "bytes4"
        }
      ],
      "name": "supportsInterface",
      "outputs": [
        {
          "name": "",
          "type": "bool"
        }
      ],
      "payable": false,
      "stateMutability": "view",
      "type": "function"
    },
    {
      "constant": true,
      "inputs": [],
      "name": "name",
      "outputs": [
        {
          "name": "",
          "type": "string"
        }
      ],
      "payable": false,
      "stateMutability": "view",
      "type": "function"
    },
    {
      "constant": true,
      "inputs": [
        {
          "name": "tokenId",
          "type": "uint256"
        }
      ],
      "name": "getApproved",
      "outputs": [
        {
          "name": "",
          "type": "address"
        }
      ],
      "payable": false,
      "stateMutability": "view",
      "type": "function"
    },
    {
      "constant": false,
      "inputs": [
        {
          "name": "to",
          "type": "address"
        },
        {
          "name": "tokenId",
          "type": "uint256"
        }
      ],
      "name": "approve",
      "outputs": [],
      "payable": false,
      "stateMutability": "nonpayable",
      "type": "function"
    },
    {
      "constant": false,
      "inputs": [
        {
          "name": "name",
          "type": "string"
        }
      ],
      "name": "registerCustomer",
      "outputs": [
        {
          "name": "",
          "type": "uint256"
        }
      ],
      "payable": false,
      "stateMutability": "nonpayable",
      "type": "function"
    },
    {
      "constant": true,
      "inputs": [],
      "name": "totalSupply",
      "outputs": [
        {
          "name": "",
          "type": "uint256"
        }
      ],
      "payable": false,
      "stateMutability": "view",
      "type": "function"
    },
    {
      "constant": false,
      "inputs": [
        {
          "name": "from",
          "type": "address"
        },
        {
          "name": "to",
          "type": "address"
        },
        {
          "name": "tokenId",
          "type": "uint256"
        }
      ],
      "name": "transferFrom",
      "outputs": [],
      "payable": false,
      "stateMutability": "nonpayable",
      "type": "function"
    },
    {
      "constant": false,
      "inputs": [
        {
          "name": "_newCEO",
          "type": "address"
        }
      ],
      "name": "setCEO",
      "outputs": [],
      "payable": false,
      "stateMutability": "nonpayable",
      "type": "function"
    },
    {
      "constant": true,
      "inputs": [
        {
          "name": "owner",
          "type": "address"
        },
        {
          "name": "index",
          "type": "uint256"
        }
      ],
      "name": "tokenOfOwnerByIndex",
      "outputs": [
        {
          "name": "",
          "type": "uint256"
        }
      ],
      "payable": false,
      "stateMutability": "view",
      "type": "function"
    },
    {
      "constant": true,
      "inputs": [
        {
          "name": "",
          "type": "uint256"
        }
      ],
      "name": "diamonds",
      "outputs": [
        {
          "name": "gemName",
          "type": "string"
        },
        {
          "name": "gemCountry",
          "type": "string"
        },
        {
          "name": "gemcolor",
          "type": "string"
        },
        {
          "name": "gemclarity",
          "type": "string"
        },
        {
          "name": "gemcut",
          "type": "string"
        },
        {
          "name": "gemcarat",
          "type": "uint256"
        },
        {
          "name": "owner",
          "type": "address"
        },
        {
          "name": "status",
          "type": "string"
        }
      ],
      "payable": false,
      "stateMutability": "view",
      "type": "function"
    },
    {
      "constant": false,
      "inputs": [],
      "name": "unpause",
      "outputs": [],
      "payable": false,
      "stateMutability": "nonpayable",
      "type": "function"
    },
    {
      "constant": false,
      "inputs": [
        {
          "name": "from",
          "type": "address"
        },
        {
          "name": "to",
          "type": "address"
        },
        {
          "name": "tokenId",
          "type": "uint256"
        }
      ],
      "name": "safeTransferFrom",
      "outputs": [],
      "payable": false,
      "stateMutability": "nonpayable",
      "type": "function"
    },
    {
      "constant": true,
      "inputs": [
        {
          "name": "",
          "type": "address"
        }
      ],
      "name": "admins",
      "outputs": [
        {
          "name": "",
          "type": "bool"
        }
      ],
      "payable": false,
      "stateMutability": "view",
      "type": "function"
    },
    {
      "constant": false,
      "inputs": [
        {
          "name": "_newAdmin",
          "type": "address"
        },
        {
          "name": "isAdmin",
          "type": "bool"
        }
      ],
      "name": "setAdmin",
      "outputs": [],
      "payable": false,
      "stateMutability": "nonpayable",
      "type": "function"
    },
    {
      "constant": true,
      "inputs": [
        {
          "name": "index",
          "type": "uint256"
        }
      ],
      "name": "tokenByIndex",
      "outputs": [
        {
          "name": "",
          "type": "uint256"
        }
      ],
      "payable": false,
      "stateMutability": "view",
      "type": "function"
    },
    {
      "constant": true,
      "inputs": [],
      "name": "paused",
      "outputs": [
        {
          "name": "",
          "type": "bool"
        }
      ],
      "payable": false,
      "stateMutability": "view",
      "type": "function"
    },
    {
      "constant": true,
      "inputs": [
        {
          "name": "tokenId",
          "type": "uint256"
        }
      ],
      "name": "ownerOf",
      "outputs": [
        {
          "name": "",
          "type": "address"
        }
      ],
      "payable": false,
      "stateMutability": "view",
      "type": "function"
    },
    {
      "constant": true,
      "inputs": [
        {
          "name": "owner",
          "type": "address"
        }
      ],
      "name": "balanceOf",
      "outputs": [
        {
          "name": "",
          "type": "uint256"
        }
      ],
      "payable": false,
      "stateMutability": "view",
      "type": "function"
    },
    {
      "constant": false,
      "inputs": [
        {
          "name": "name",
          "type": "string"
        }
      ],
      "name": "registerRetailer",
      "outputs": [
        {
          "name": "",
          "type": "uint256"
        }
      ],
      "payable": false,
      "stateMutability": "nonpayable",
      "type": "function"
    },
    {
      "constant": false,
      "inputs": [],
      "name": "pause",
      "outputs": [],
      "payable": false,
      "stateMutability": "nonpayable",
      "type": "function"
    },
    {
      "constant": true,
      "inputs": [],
      "name": "getRegisteredManufacture",
      "outputs": [
        {
          "name": "",
          "type": "address[]"
        }
      ],
      "payable": false,
      "stateMutability": "view",
      "type": "function"
    },
    {
      "constant": true,
      "inputs": [],
      "name": "symbol",
      "outputs": [
        {
          "name": "",
          "type": "string"
        }
      ],
      "payable": false,
      "stateMutability": "view",
      "type": "function"
    },
    {
      "constant": true,
      "inputs": [],
      "name": "CEO",
      "outputs": [
        {
          "name": "",
          "type": "address"
        }
      ],
      "payable": false,
      "stateMutability": "view",
      "type": "function"
    },
    {
      "constant": false,
      "inputs": [
        {
          "name": "to",
          "type": "address"
        },
        {
          "name": "approved",
          "type": "bool"
        }
      ],
      "name": "setApprovalForAll",
      "outputs": [],
      "payable": false,
      "stateMutability": "nonpayable",
      "type": "function"
    },
    {
      "constant": false,
      "inputs": [
        {
          "name": "from",
          "type": "address"
        },
        {
          "name": "to",
          "type": "address"
        },
        {
          "name": "tokenId",
          "type": "uint256"
        },
        {
          "name": "_data",
          "type": "bytes"
        }
      ],
      "name": "safeTransferFrom",
      "outputs": [],
      "payable": false,
      "stateMutability": "nonpayable",
      "type": "function"
    },
    {
      "constant": true,
      "inputs": [
        {
          "name": "tokenId",
          "type": "uint256"
        }
      ],
      "name": "tokenURI",
      "outputs": [
        {
          "name": "",
          "type": "string"
        }
      ],
      "payable": false,
      "stateMutability": "view",
      "type": "function"
    },
    {
      "constant": false,
      "inputs": [
        {
          "name": "name",
          "type": "string"
        }
      ],
      "name": "registerManufacture",
      "outputs": [
        {
          "name": "",
          "type": "uint256"
        }
      ],
      "payable": false,
      "stateMutability": "nonpayable",
      "type": "function"
    },
    {
      "constant": true,
      "inputs": [
        {
          "name": "_address",
          "type": "address"
        }
      ],
      "name": "getRegisteredUser",
      "outputs": [
        {
          "name": "",
          "type": "uint256"
        },
        {
          "name": "",
          "type": "string"
        },
        {
          "name": "",
          "type": "address"
        },
        {
          "name": "",
          "type": "string"
        }
      ],
      "payable": false,
      "stateMutability": "view",
      "type": "function"
    },
    {
      "constant": true,
      "inputs": [
        {
          "name": "owner",
          "type": "address"
        },
        {
          "name": "operator",
          "type": "address"
        }
      ],
      "name": "isApprovedForAll",
      "outputs": [
        {
          "name": "",
          "type": "bool"
        }
      ],
      "payable": false,
      "stateMutability": "view",
      "type": "function"
    },
    {
      "constant": true,
      "inputs": [],
      "name": "getRegisteredCustomer",
      "outputs": [
        {
          "name": "",
          "type": "address[]"
        }
      ],
      "payable": false,
      "stateMutability": "view",
      "type": "function"
    },
    {
      "constant": true,
      "inputs": [],
      "name": "getRegisteredRetailer",
      "outputs": [
        {
          "name": "",
          "type": "address[]"
        }
      ],
      "payable": false,
      "stateMutability": "view",
      "type": "function"
    },
    {
      "constant": true,
      "inputs": [],
      "name": "countUsers",
      "outputs": [
        {
          "name": "",
          "type": "uint256"
        }
      ],
      "payable": false,
      "stateMutability": "view",
      "type": "function"
    },
    {
      "inputs": [],
      "payable": false,
      "stateMutability": "nonpayable",
      "type": "constructor"
    },
    {
      "anonymous": false,
      "inputs": [
        {
          "indexed": false,
          "name": "_address",
          "type": "address"
        },
        {
          "indexed": false,
          "name": "_diamondID",
          "type": "uint256"
        }
      ],
      "name": "eventcreateDiamond",
      "type": "event"
    },
    {
      "anonymous": false,
      "inputs": [
        {
          "indexed": false,
          "name": "_from",
          "type": "address"
        },
        {
          "indexed": false,
          "name": "_to",
          "type": "address"
        },
        {
          "indexed": false,
          "name": "_diamondID",
          "type": "uint256"
        }
      ],
      "name": "eventtransferOwnership",
      "type": "event"
    },
    {
      "anonymous": false,
      "inputs": [
        {
          "indexed": false,
          "name": "_diamondID",
          "type": "uint256"
        },
        {
          "indexed": false,
          "name": "_seller",
          "type": "address"
        },
        {
          "indexed": false,
          "name": "_buyer",
          "type": "address"
        },
        {
          "indexed": false,
          "name": "_Price",
          "type": "uint256"
        },
        {
          "indexed": false,
          "name": "timestamp",
          "type": "uint256"
        }
      ],
      "name": "TransactionHistory",
      "type": "event"
    },
    {
      "anonymous": false,
      "inputs": [
        {
          "indexed": false,
          "name": "_address",
          "type": "address"
        },
        {
          "indexed": false,
          "name": "_name",
          "type": "string"
        },
        {
          "indexed": false,
          "name": "_usertype",
          "type": "string"
        }
      ],
      "name": "registered",
      "type": "event"
    },
    {
      "anonymous": false,
      "inputs": [
        {
          "indexed": true,
          "name": "from",
          "type": "address"
        },
        {
          "indexed": true,
          "name": "to",
          "type": "address"
        },
        {
          "indexed": true,
          "name": "tokenId",
          "type": "uint256"
        }
      ],
      "name": "Transfer",
      "type": "event"
    },
    {
      "anonymous": false,
      "inputs": [
        {
          "indexed": true,
          "name": "owner",
          "type": "address"
        },
        {
          "indexed": true,
          "name": "approved",
          "type": "address"
        },
        {
          "indexed": true,
          "name": "tokenId",
          "type": "uint256"
        }
      ],
      "name": "Approval",
      "type": "event"
    },
    {
      "anonymous": false,
      "inputs": [
        {
          "indexed": true,
          "name": "owner",
          "type": "address"
        },
        {
          "indexed": true,
          "name": "operator",
          "type": "address"
        },
        {
          "indexed": false,
          "name": "approved",
          "type": "bool"
        }
      ],
      "name": "ApprovalForAll",
      "type": "event"
    },
    {
      "constant": false,
      "inputs": [
        {
          "name": "_gemName",
          "type": "string"
        },
        {
          "name": "_gemCountry",
          "type": "string"
        },
        {
          "name": "_gemcolor",
          "type": "string"
        },
        {
          "name": "_gemclarity",
          "type": "string"
        },
        {
          "name": "_gemcut",
          "type": "string"
        },
        {
          "name": "_gemcarat",
          "type": "uint256"
        }
      ],
      "name": "createDiamond",
      "outputs": [],
      "payable": false,
      "stateMutability": "nonpayable",
      "type": "function"
    },
    {
      "constant": false,
      "inputs": [
        {
          "name": "_diamondID",
          "type": "uint256"
        }
      ],
      "name": "VerifyDiamond",
      "outputs": [],
      "payable": false,
      "stateMutability": "nonpayable",
      "type": "function"
    },
    {
      "constant": true,
      "inputs": [
        {
          "name": "_diamondID",
          "type": "uint256"
        }
      ],
      "name": "_isDiamondVerified",
      "outputs": [
        {
          "name": "",
          "type": "bool"
        }
      ],
      "payable": false,
      "stateMutability": "view",
      "type": "function"
    },
    {
      "constant": false,
      "inputs": [
        {
          "name": "_diamondID",
          "type": "uint256"
        },
        {
          "name": "_seller",
          "type": "address"
        },
        {
          "name": "_buyer",
          "type": "address"
        },
        {
          "name": "_Price",
          "type": "uint256"
        }
      ],
      "name": "_BuyfromManufacturer",
      "outputs": [],
      "payable": false,
      "stateMutability": "nonpayable",
      "type": "function"
    },
    {
      "constant": true,
      "inputs": [
        {
          "name": "_diamondID",
          "type": "uint256"
        }
      ],
      "name": "getDiamond",
      "outputs": [
        {
          "name": "",
          "type": "string"
        },
        {
          "name": "",
          "type": "string"
        },
        {
          "name": "",
          "type": "string"
        },
        {
          "name": "",
          "type": "string"
        },
        {
          "name": "",
          "type": "string"
        },
        {
          "name": "",
          "type": "uint256"
        }
      ],
      "payable": false,
      "stateMutability": "view",
      "type": "function"
    },
    {
      "constant": true,
      "inputs": [
        {
          "name": "_diamondID",
          "type": "uint256"
        }
      ],
      "name": "ownerofToken",
      "outputs": [
        {
          "name": "",
          "type": "address"
        }
      ],
      "payable": false,
      "stateMutability": "view",
      "type": "function"
    }
  ],
  "bytecode": "0x60806040526000600c556000601460006101000a81548160ff0219169083151502179055503480156200003157600080fd5b506040518060400160405280600e81526020017f4469616d6f6e64466163746f72790000000000000000000000000000000000008152506040518060400160405280600281526020017f44460000000000000000000000000000000000000000000000000000000000008152508181620000b86301ffc9a760e01b6200017d60201b60201c565b620000d06380ac58cd60e01b6200017d60201b60201c565b620000e863780e9d6360e01b6200017d60201b60201c565b81600990805190602001906200010092919062000286565b5080600a90805190602001906200011992919062000286565b5062000132635b5e139f60e01b6200017d60201b60201c565b5050505033600d60006101000a81548173ffffffffffffffffffffffffffffffffffffffff021916908373ffffffffffffffffffffffffffffffffffffffff16021790555062000335565b63ffffffff60e01b817bffffffffffffffffffffffffffffffffffffffffffffffffffffffff191614156200021a576040517f08c379a000000000000000000000000000000000000000000000000000000000815260040180806020018281038252601c8152602001807f4552433136353a20696e76616c696420696e746572666163652069640000000081525060200191505060405180910390fd5b6001600080837bffffffffffffffffffffffffffffffffffffffffffffffffffffffff19167bffffffffffffffffffffffffffffffffffffffffffffffffffffffff1916815260200190815260200160002060006101000a81548160ff02191690831515021790555050565b828054600181600116156101000203166002900490600052602060002090601f016020900481019282601f10620002c957805160ff1916838001178555620002fa565b82800160010185558215620002fa579182015b82811115620002f9578251825591602001919060010190620002dc565b5b5090506200030991906200030d565b5090565b6200033291905b808211156200032e57600081600090555060010162000314565b5090565b90565b6166fd80620003456000396000f3fe608060405234801561001057600080fd5b50600436106102325760003560e01c806370a0823111610130578063c87b56dd116100b8578063e54a29bb1161007c578063e54a29bb146116d0578063e985e9c514611833578063e9c888a3146118af578063f355d0dc1461190e578063f8fb1d0f1461196d57610232565b8063c87b56dd14611248578063d1ab6813146112ef578063dced10d8146113be578063df8e0c3014611404578063e3ed14db1461147257610232565b80638668c684116100ff5780638668c68414610fc757806395d89b4114611026578063a1088571146110a9578063a22cb465146110f3578063b88d4fde1461114357610232565b806370a0823114610e68578063754f77db14610ec0578063779dd4e814610f8f5780638456cb5914610fbd57610232565b80632f745c59116101be5780634b0bddd2116101825780634b0bddd214610a255780634f6ccce714610a755780635c975abb14610ab75780635db0424214610ad95780636352211e14610dfa57610232565b80632f745c59146105f25780633951e09b146106545780633f4ba83a1461095157806342842e0e1461095b578063429b62e5146109c957610232565b80631378d806116102055780631378d806146103db57806318160ddd146104aa57806323b872dd146104c857806325fb33fe1461053657806327d7874c146105ae57610232565b806301ffc9a71461023757806306fdde031461029c578063081812fc1461031f578063095ea7b31461038d575b600080fd5b6102826004803603602081101561024d57600080fd5b8101908080357bffffffffffffffffffffffffffffffffffffffffffffffffffffffff1916906020019092919050505061198b565b604051808215151515815260200191505060405180910390f35b6102a46119f2565b6040518080602001828103825283818151815260200191508051906020019080838360005b838110156102e45780820151818401526020810190506102c9565b50505050905090810190601f1680156103115780820380516001836020036101000a031916815260200191505b509250505060405180910390f35b61034b6004803603602081101561033557600080fd5b8101908080359060200190929190505050611a94565b604051808273ffffffffffffffffffffffffffffffffffffffff1673ffffffffffffffffffffffffffffffffffffffff16815260200191505060405180910390f35b6103d9600480360360408110156103a357600080fd5b81019080803573ffffffffffffffffffffffffffffffffffffffff16906020019092919080359060200190929190505050611b2f565b005b610494600480360360208110156103f157600080fd5b810190808035906020019064010000000081111561040e57600080fd5b82018360208201111561042057600080fd5b8035906020019184600183028401116401000000008311171561044257600080fd5b91908080601f016020809104026020016040519081016040528093929190818152602001838380828437600081840152601f19601f820116905080830192505050505050509192919290505050611d16565b6040518082815260200191505060405180910390f35b6104b2612104565b6040518082815260200191505060405180910390f35b610534600480360360608110156104de57600080fd5b81019080803573ffffffffffffffffffffffffffffffffffffffff169060200190929190803573ffffffffffffffffffffffffffffffffffffffff16906020019092919080359060200190929190505050612111565b005b6105ac6004803603608081101561054c57600080fd5b8101908080359060200190929190803573ffffffffffffffffffffffffffffffffffffffff169060200190929190803573ffffffffffffffffffffffffffffffffffffffff16906020019092919080359060200190929190505050612187565b005b6105f0600480360360208110156105c457600080fd5b81019080803573ffffffffffffffffffffffffffffffffffffffff1690602001909291905050506124a4565b005b61063e6004803603604081101561060857600080fd5b81019080803573ffffffffffffffffffffffffffffffffffffffff16906020019092919080359060200190929190505050612631565b6040518082815260200191505060405180910390f35b6106806004803603602081101561066a57600080fd5b81019080803590602001909291905050506126f0565b6040518080602001806020018060200180602001806020018981526020018873ffffffffffffffffffffffffffffffffffffffff1673ffffffffffffffffffffffffffffffffffffffff1681526020018060200187810387528f818151815260200191508051906020019080838360005b8381101561070c5780820151818401526020810190506106f1565b50505050905090810190601f1680156107395780820380516001836020036101000a031916815260200191505b5087810386528e818151815260200191508051906020019080838360005b83811015610772578082015181840152602081019050610757565b50505050905090810190601f16801561079f5780820380516001836020036101000a031916815260200191505b5087810385528d818151815260200191508051906020019080838360005b838110156107d85780820151818401526020810190506107bd565b50505050905090810190601f1680156108055780820380516001836020036101000a031916815260200191505b5087810384528c818151815260200191508051906020019080838360005b8381101561083e578082015181840152602081019050610823565b50505050905090810190601f16801561086b5780820380516001836020036101000a031916815260200191505b5087810383528b818151815260200191508051906020019080838360005b838110156108a4578082015181840152602081019050610889565b50505050905090810190601f1680156108d15780820380516001836020036101000a031916815260200191505b50878103825288818151815260200191508051906020019080838360005b8381101561090a5780820151818401526020810190506108ef565b50505050905090810190601f1680156109375780820380516001836020036101000a031916815260200191505b509e50505050505050505050505050505060405180910390f35b610959612af5565b005b6109c76004803603606081101561097157600080fd5b81019080803573ffffffffffffffffffffffffffffffffffffffff169060200190929190803573ffffffffffffffffffffffffffffffffffffffff16906020019092919080359060200190929190505050612c57565b005b610a0b600480360360208110156109df57600080fd5b81019080803573ffffffffffffffffffffffffffffffffffffffff169060200190929190505050612c77565b604051808215151515815260200191505060405180910390f35b610a7360048036036040811015610a3b57600080fd5b81019080803573ffffffffffffffffffffffffffffffffffffffff169060200190929190803515159060200190929190505050612c97565b005b610aa160048036036020811015610a8b57600080fd5b8101908080359060200190929190505050612e3b565b6040518082815260200191505060405180910390f35b610abf612ebb565b604051808215151515815260200191505060405180910390f35b610df8600480360360c0811015610aef57600080fd5b8101908080359060200190640100000000811115610b0c57600080fd5b820183602082011115610b1e57600080fd5b80359060200191846001830284011164010000000083111715610b4057600080fd5b91908080601f016020809104026020016040519081016040528093929190818152602001838380828437600081840152601f19601f82011690508083019250505050505050919291929080359060200190640100000000811115610ba357600080fd5b820183602082011115610bb557600080fd5b80359060200191846001830284011164010000000083111715610bd757600080fd5b91908080601f016020809104026020016040519081016040528093929190818152602001838380828437600081840152601f19601f82011690508083019250505050505050919291929080359060200190640100000000811115610c3a57600080fd5b820183602082011115610c4c57600080fd5b80359060200191846001830284011164010000000083111715610c6e57600080fd5b91908080601f016020809104026020016040519081016040528093929190818152602001838380828437600081840152601f19601f82011690508083019250505050505050919291929080359060200190640100000000811115610cd157600080fd5b820183602082011115610ce357600080fd5b80359060200191846001830284011164010000000083111715610d0557600080fd5b91908080601f016020809104026020016040519081016040528093929190818152602001838380828437600081840152601f19601f82011690508083019250505050505050919291929080359060200190640100000000811115610d6857600080fd5b820183602082011115610d7a57600080fd5b80359060200191846001830284011164010000000083111715610d9c57600080fd5b91908080601f016020809104026020016040519081016040528093929190818152602001838380828437600081840152601f19601f82011690508083019250505050505050919291929080359060200190929190505050612ece565b005b610e2660048036036020811015610e1057600080fd5b810190808035906020019092919050505061335d565b604051808273ffffffffffffffffffffffffffffffffffffffff1673ffffffffffffffffffffffffffffffffffffffff16815260200191505060405180910390f35b610eaa60048036036020811015610e7e57600080fd5b81019080803573ffffffffffffffffffffffffffffffffffffffff169060200190929190505050613425565b6040518082815260200191505060405180910390f35b610f7960048036036020811015610ed657600080fd5b8101908080359060200190640100000000811115610ef357600080fd5b820183602082011115610f0557600080fd5b80359060200191846001830284011164010000000083111715610f2757600080fd5b91908080601f016020809104026020016040519081016040528093929190818152602001838380828437600081840152601f19601f8201169050808301925050505050505091929192905050506134fa565b6040518082815260200191505060405180910390f35b610fbb60048036036020811015610fa557600080fd5b81019080803590602001909291905050506138e8565b005b610fc5613b61565b005b610fcf613cfb565b6040518080602001828103825283818151815260200191508051906020019060200280838360005b83811015611012578082015181840152602081019050610ff7565b505050509050019250505060405180910390f35b61102e613d89565b6040518080602001828103825283818151815260200191508051906020019080838360005b8381101561106e578082015181840152602081019050611053565b50505050905090810190601f16801561109b5780820380516001836020036101000a031916815260200191505b509250505060405180910390f35b6110b1613e2b565b604051808273ffffffffffffffffffffffffffffffffffffffff1673ffffffffffffffffffffffffffffffffffffffff16815260200191505060405180910390f35b6111416004803603604081101561110957600080fd5b81019080803573ffffffffffffffffffffffffffffffffffffffff169060200190929190803515159060200190929190505050613e51565b005b6112466004803603608081101561115957600080fd5b81019080803573ffffffffffffffffffffffffffffffffffffffff169060200190929190803573ffffffffffffffffffffffffffffffffffffffff16906020019092919080359060200190929190803590602001906401000000008111156111c057600080fd5b8201836020820111156111d257600080fd5b803590602001918460018302840111640100000000831117156111f457600080fd5b91908080601f016020809104026020016040519081016040528093929190818152602001838380828437600081840152601f19601f820116905080830192505050505050509192919290505050614009565b005b6112746004803603602081101561125e57600080fd5b8101908080359060200190929190505050614081565b6040518080602001828103825283818151815260200191508051906020019080838360005b838110156112b4578082015181840152602081019050611299565b50505050905090810190601f1680156112e15780820380516001836020036101000a031916815260200191505b509250505060405180910390f35b6113a86004803603602081101561130557600080fd5b810190808035906020019064010000000081111561132257600080fd5b82018360208201111561133457600080fd5b8035906020019184600183028401116401000000008311171561135657600080fd5b91908080601f016020809104026020016040519081016040528093929190818152602001838380828437600081840152601f19601f820116905080830192505050505050509192919290505050614194565b6040518082815260200191505060405180910390f35b6113ea600480360360208110156113d457600080fd5b8101908080359060200190929190505050614582565b604051808215151515815260200191505060405180910390f35b6114306004803603602081101561141a57600080fd5b8101908080359060200190929190505050614755565b604051808273ffffffffffffffffffffffffffffffffffffffff1673ffffffffffffffffffffffffffffffffffffffff16815260200191505060405180910390f35b61149e6004803603602081101561148857600080fd5b81019080803590602001909291905050506147f9565b60405180806020018060200180602001806020018060200187815260200186810386528c818151815260200191508051906020019080838360005b838110156114f45780820151818401526020810190506114d9565b50505050905090810190601f1680156115215780820380516001836020036101000a031916815260200191505b5086810385528b818151815260200191508051906020019080838360005b8381101561155a57808201518184015260208101905061153f565b50505050905090810190601f1680156115875780820380516001836020036101000a031916815260200191505b5086810384528a818151815260200191508051906020019080838360005b838110156115c05780820151818401526020810190506115a5565b50505050905090810190601f1680156115ed5780820380516001836020036101000a031916815260200191505b50868103835289818151815260200191508051906020019080838360005b8381101561162657808201518184015260208101905061160b565b50505050905090810190601f1680156116535780820380516001836020036101000a031916815260200191505b50868103825288818151815260200191508051906020019080838360005b8381101561168c578082015181840152602081019050611671565b50505050905090810190601f1680156116b95780820380516001836020036101000a031916815260200191505b509b50505050505050505050505060405180910390f35b611712600480360360208110156116e657600080fd5b81019080803573ffffffffffffffffffffffffffffffffffffffff169060200190929190505050614c6c565b60405180858152602001806020018473ffffffffffffffffffffffffffffffffffffffff1673ffffffffffffffffffffffffffffffffffffffff16815260200180602001838103835286818151815260200191508051906020019080838360005b8381101561178e578082015181840152602081019050611773565b50505050905090810190601f1680156117bb5780820380516001836020036101000a031916815260200191505b50838103825284818151815260200191508051906020019080838360005b838110156117f45780820151818401526020810190506117d9565b50505050905090810190601f1680156118215780820380516001836020036101000a031916815260200191505b50965050505050505060405180910390f35b6118956004803603604081101561184957600080fd5b81019080803573ffffffffffffffffffffffffffffffffffffffff169060200190929190803573ffffffffffffffffffffffffffffffffffffffff169060200190929190505050614f8b565b604051808215151515815260200191505060405180910390f35b6118b761501f565b6040518080602001828103825283818151815260200191508051906020019060200280838360005b838110156118fa5780820151818401526020810190506118df565b505050509050019250505060405180910390f35b611916615153565b6040518080602001828103825283818151815260200191508051906020019060200280838360005b8381101561195957808201518184015260208101905061193e565b505050509050019250505060405180910390f35b6119756151e1565b6040518082815260200191505060405180910390f35b6000806000837bffffffffffffffffffffffffffffffffffffffffffffffffffffffff19167bffffffffffffffffffffffffffffffffffffffffffffffffffffffff1916815260200190815260200160002060009054906101000a900460ff169050919050565b606060098054600181600116156101000203166002900480601f016020809104026020016040519081016040528092919081815260200182805460018160011615610100020316600290048015611a8a5780601f10611a5f57610100808354040283529160200191611a8a565b820191906000526020600020905b815481529060010190602001808311611a6d57829003601f168201915b5050505050905090565b6000611a9f82615291565b611af4576040517f08c379a000000000000000000000000000000000000000000000000000000000815260040180806020018281038252602c815260200180616578602c913960400191505060405180910390fd5b6002600083815260200190815260200160002060009054906101000a900473ffffffffffffffffffffffffffffffffffffffff169050919050565b6000611b3a8261335d565b90508073ffffffffffffffffffffffffffffffffffffffff168373ffffffffffffffffffffffffffffffffffffffff161415611bc1576040517f08c379a00000000000000000000000000000000000000000000000000000000081526004018080602001828103825260218152602001806165fc6021913960400191505060405180910390fd5b8073ffffffffffffffffffffffffffffffffffffffff16611be0615303565b73ffffffffffffffffffffffffffffffffffffffff161480611c0f5750611c0e81611c09615303565b614f8b565b5b611c64576040517f08c379a000000000000000000000000000000000000000000000000000000000815260040180806020018281038252603881526020018061649e6038913960400191505060405180910390fd5b826002600084815260200190815260200160002060006101000a81548173ffffffffffffffffffffffffffffffffffffffff021916908373ffffffffffffffffffffffffffffffffffffffff160217905550818373ffffffffffffffffffffffffffffffffffffffff168273ffffffffffffffffffffffffffffffffffffffff167f8c5be1e5ebec7d5bd14f71427d1e84f3dd0314c0f7b2291e5b200ac8c7c3b92560405160405180910390a4505050565b6000600e60003373ffffffffffffffffffffffffffffffffffffffff1673ffffffffffffffffffffffffffffffffffffffff16815260200190815260200160002060040160009054906101000a900460ff1615611dbe576040517f08c379a000000000000000000000000000000000000000000000000000000000815260040180806020018281038252602d81526020018061661d602d913960400191505060405180910390fd5b6040518060e00160405280600c60008154809291906001019190505581526020018381526020013373ffffffffffffffffffffffffffffffffffffffff1681526020016040518060400160405280600881526020017f437573746f6d6572000000000000000000000000000000000000000000000000815250815260200160011515815260200160001515815260200160001515815250600e60003373ffffffffffffffffffffffffffffffffffffffff1673ffffffffffffffffffffffffffffffffffffffff168152602001908152602001600020600082015181600001556020820151816001019080519060200190611eba9291906161f2565b5060408201518160020160006101000a81548173ffffffffffffffffffffffffffffffffffffffff021916908373ffffffffffffffffffffffffffffffffffffffff1602179055506060820151816003019080519060200190611f1e9291906161f2565b5060808201518160040160006101000a81548160ff02191690831515021790555060a08201518160040160016101000a81548160ff02191690831515021790555060c08201518160040160026101000a81548160ff0219169083151502179055509050506000600c549050600160103390806001815401808255809150509060018203906000526020600020016000909192909190916101000a81548173ffffffffffffffffffffffffffffffffffffffff021916908373ffffffffffffffffffffffffffffffffffffffff16021790555050507f5d5d81ca0768aad867a6bbc6b659be5eee0b4d514771c2c8abfc1aa638a8eac53384604051808373ffffffffffffffffffffffffffffffffffffffff1673ffffffffffffffffffffffffffffffffffffffff1681526020018060200180602001838103835284818151815260200191508051906020019080838360005b8381101561208b578082015181840152602081019050612070565b50505050905090810190601f1680156120b85780820380516001836020036101000a031916815260200191505b50838103825260088152602001807f437573746f6d657200000000000000000000000000000000000000000000000081525060200194505050505060405180910390a180915050919050565b6000600780549050905090565b61212261211c615303565b8261530b565b612177576040517f08c379a000000000000000000000000000000000000000000000000000000000815260040180806020018281038252603181526020018061664a6031913960400191505060405180910390fd5b6121828383836153ff565b505050565b600e60003373ffffffffffffffffffffffffffffffffffffffff1673ffffffffffffffffffffffffffffffffffffffff16815260200190815260200160002060040160029054906101000a900460ff161561222d576040517f08c379a000000000000000000000000000000000000000000000000000000000815260040180806020018281038252602881526020018061644a6028913960400191505060405180910390fd5b601460009054906101000a900460ff1615612293576040517f08c379a000000000000000000000000000000000000000000000000000000000815260040180806020018281038252602a81526020018061639f602a913960400191505060405180910390fd5b61229c84614582565b61230e576040517f08c379a00000000000000000000000000000000000000000000000000000000081526004018080602001828103825260178152602001807f4469616d6f6e64206973206e6f7420766572696669656400000000000000000081525060200191505060405180910390fd5b61231783615423565b612389576040517f08c379a000000000000000000000000000000000000000000000000000000000815260040180806020018281038252601a8152602001807f53656c6c6572206973206e6f74206d616e75666163747572657200000000000081525060200191505060405180910390fd5b6000601960008681526020019081526020016000209050828160060160006101000a81548173ffffffffffffffffffffffffffffffffffffffff021916908373ffffffffffffffffffffffffffffffffffffffff1602179055506123ee8484876153ff565b7fd3118335312cd2747ce69f91d0a5da5843378662c4f0f5ca930ab305ba3bebbb8585858542604051808681526020018573ffffffffffffffffffffffffffffffffffffffff1673ffffffffffffffffffffffffffffffffffffffff1681526020018473ffffffffffffffffffffffffffffffffffffffff1673ffffffffffffffffffffffffffffffffffffffff1681526020018381526020018281526020019550505050505060405180910390a15050505050565b601260009054906101000a900473ffffffffffffffffffffffffffffffffffffffff1673ffffffffffffffffffffffffffffffffffffffff163373ffffffffffffffffffffffffffffffffffffffff1614612567576040517f08c379a00000000000000000000000000000000000000000000000000000000081526004018080602001828103825260178152602001807f41636365737320746f204446202d2043454f206f6e6c7900000000000000000081525060200191505060405180910390fd5b600073ffffffffffffffffffffffffffffffffffffffff168173ffffffffffffffffffffffffffffffffffffffff1614156125ed576040517f08c379a000000000000000000000000000000000000000000000000000000000815260040180806020018281038252602e81526020018061654a602e913960400191505060405180910390fd5b80601260006101000a81548173ffffffffffffffffffffffffffffffffffffffff021916908373ffffffffffffffffffffffffffffffffffffffff16021790555050565b600061263c83613425565b8210612693576040517f08c379a000000000000000000000000000000000000000000000000000000000815260040180806020018281038252602b8152602001806163c9602b913960400191505060405180910390fd5b600560008473ffffffffffffffffffffffffffffffffffffffff1673ffffffffffffffffffffffffffffffffffffffff16815260200190815260200160002082815481106126dd57fe5b9060005260206000200154905092915050565b601581815481106126fd57fe5b9060005260206000209060080201600091509050806000018054600181600116156101000203166002900480601f0160208091040260200160405190810160405280929190818152602001828054600181600116156101000203166002900480156127a95780601f1061277e576101008083540402835291602001916127a9565b820191906000526020600020905b81548152906001019060200180831161278c57829003601f168201915b505050505090806001018054600181600116156101000203166002900480601f0160208091040260200160405190810160405280929190818152602001828054600181600116156101000203166002900480156128475780601f1061281c57610100808354040283529160200191612847565b820191906000526020600020905b81548152906001019060200180831161282a57829003601f168201915b505050505090806002018054600181600116156101000203166002900480601f0160208091040260200160405190810160405280929190818152602001828054600181600116156101000203166002900480156128e55780601f106128ba576101008083540402835291602001916128e5565b820191906000526020600020905b8154815290600101906020018083116128c857829003601f168201915b505050505090806003018054600181600116156101000203166002900480601f0160208091040260200160405190810160405280929190818152602001828054600181600116156101000203166002900480156129835780601f1061295857610100808354040283529160200191612983565b820191906000526020600020905b81548152906001019060200180831161296657829003601f168201915b505050505090806004018054600181600116156101000203166002900480601f016020809104026020016040519081016040528092919081815260200182805460018160011615610100020316600290048015612a215780601f106129f657610100808354040283529160200191612a21565b820191906000526020600020905b815481529060010190602001808311612a0457829003601f168201915b5050505050908060050154908060060160009054906101000a900473ffffffffffffffffffffffffffffffffffffffff1690806007018054600181600116156101000203166002900480601f016020809104026020016040519081016040528092919081815260200182805460018160011615610100020316600290048015612aeb5780601f10612ac057610100808354040283529160200191612aeb565b820191906000526020600020905b815481529060010190602001808311612ace57829003601f168201915b5050505050905088565b601260009054906101000a900473ffffffffffffffffffffffffffffffffffffffff1673ffffffffffffffffffffffffffffffffffffffff163373ffffffffffffffffffffffffffffffffffffffff1614612bb8576040517f08c379a00000000000000000000000000000000000000000000000000000000081526004018080602001828103825260178152602001807f41636365737320746f204446202d2043454f206f6e6c7900000000000000000081525060200191505060405180910390fd5b601460009054906101000a900460ff16612c3a576040517f08c379a00000000000000000000000000000000000000000000000000000000081526004018080602001828103825260128152602001807f436f6e747261637420697320706175736564000000000000000000000000000081525060200191505060405180910390fd5b6000601460006101000a81548160ff021916908315150217905550565b612c7283838360405180602001604052806000815250614009565b505050565b60136020528060005260406000206000915054906101000a900460ff1681565b601260009054906101000a900473ffffffffffffffffffffffffffffffffffffffff1673ffffffffffffffffffffffffffffffffffffffff163373ffffffffffffffffffffffffffffffffffffffff1614612d5a576040517f08c379a00000000000000000000000000000000000000000000000000000000081526004018080602001828103825260178152602001807f41636365737320746f204446202d2043454f206f6e6c7900000000000000000081525060200191505060405180910390fd5b600073ffffffffffffffffffffffffffffffffffffffff168273ffffffffffffffffffffffffffffffffffffffff161415612de0576040517f08c379a000000000000000000000000000000000000000000000000000000000815260040180806020018281038252602e81526020018061654a602e913960400191505060405180910390fd5b80601360008473ffffffffffffffffffffffffffffffffffffffff1673ffffffffffffffffffffffffffffffffffffffff16815260200190815260200160002060006101000a81548160ff0219169083151502179055505050565b6000612e45612104565b8210612e9c576040517f08c379a000000000000000000000000000000000000000000000000000000000815260040180806020018281038252602c81526020018061667b602c913960400191505060405180910390fd5b60078281548110612ea957fe5b90600052602060002001549050919050565b601460009054906101000a900460ff1681565b600e60003373ffffffffffffffffffffffffffffffffffffffff1673ffffffffffffffffffffffffffffffffffffffff16815260200190815260200160002060040160019054906101000a900460ff1615612f74576040517f08c379a000000000000000000000000000000000000000000000000000000000815260040180806020018281038252602b8152602001806166a7602b913960400191505060405180910390fd5b601460009054906101000a900460ff1615612fda576040517f08c379a000000000000000000000000000000000000000000000000000000000815260040180806020018281038252602a81526020018061639f602a913960400191505060405180910390fd5b612fe2616272565b6040518061010001604052808881526020018781526020018681526020018581526020018481526020018381526020013373ffffffffffffffffffffffffffffffffffffffff1681526020016040518060400160405280600781526020017f50656e64696e6700000000000000000000000000000000000000000000000000815250815250905060006015829080600181540180825580915050906001820390600052602060002090600802016000909192909190915060008201518160000190805190602001906130b59291906161f2565b5060208201518160010190805190602001906130d29291906161f2565b5060408201518160020190805190602001906130ef9291906161f2565b50606082015181600301908051906020019061310c9291906161f2565b5060808201518160040190805190602001906131299291906161f2565b5060a0820151816005015560c08201518160060160006101000a81548173ffffffffffffffffffffffffffffffffffffffff021916908373ffffffffffffffffffffffffffffffffffffffff16021790555060e08201518160070190805190602001906131979291906161f2565b50505090506131a633826155f1565b60016016600083815260200190815260200160002060006101000a81548160ff021916908315150217905550816019600083815260200190815260200160002060008201518160000190805190602001906132029291906161f2565b50602082015181600101908051906020019061321f9291906161f2565b50604082015181600201908051906020019061323c9291906161f2565b5060608201518160030190805190602001906132599291906161f2565b5060808201518160040190805190602001906132769291906161f2565b5060a0820151816005015560c08201518160060160006101000a81548173ffffffffffffffffffffffffffffffffffffffff021916908373ffffffffffffffffffffffffffffffffffffffff16021790555060e08201518160070190805190602001906132e49291906161f2565b509050507f813ab5c3276dfab34b7d11cdb3be47ba7a99c98805b61a6fca388e03c1ff79243382604051808373ffffffffffffffffffffffffffffffffffffffff1673ffffffffffffffffffffffffffffffffffffffff1681526020018281526020019250505060405180910390a15050505050505050565b6000806001600084815260200190815260200160002060009054906101000a900473ffffffffffffffffffffffffffffffffffffffff169050600073ffffffffffffffffffffffffffffffffffffffff168173ffffffffffffffffffffffffffffffffffffffff16141561341c576040517f08c379a00000000000000000000000000000000000000000000000000000000081526004018080602001828103825260298152602001806165006029913960400191505060405180910390fd5b80915050919050565b60008073ffffffffffffffffffffffffffffffffffffffff168273ffffffffffffffffffffffffffffffffffffffff1614156134ac576040517f08c379a000000000000000000000000000000000000000000000000000000000815260040180806020018281038252602a8152602001806164d6602a913960400191505060405180910390fd5b6134f3600360008473ffffffffffffffffffffffffffffffffffffffff1673ffffffffffffffffffffffffffffffffffffffff168152602001908152602001600020615612565b9050919050565b6000600e60003373ffffffffffffffffffffffffffffffffffffffff1673ffffffffffffffffffffffffffffffffffffffff16815260200190815260200160002060040160009054906101000a900460ff16156135a2576040517f08c379a000000000000000000000000000000000000000000000000000000000815260040180806020018281038252602d81526020018061661d602d913960400191505060405180910390fd5b6040518060e00160405280600c60008154809291906001019190505581526020018381526020013373ffffffffffffffffffffffffffffffffffffffff1681526020016040518060400160405280600881526020017f52657461696c6572000000000000000000000000000000000000000000000000815250815260200160011515815260200160001515815260200160011515815250600e60003373ffffffffffffffffffffffffffffffffffffffff1673ffffffffffffffffffffffffffffffffffffffff16815260200190815260200160002060008201518160000155602082015181600101908051906020019061369e9291906161f2565b5060408201518160020160006101000a81548173ffffffffffffffffffffffffffffffffffffffff021916908373ffffffffffffffffffffffffffffffffffffffff16021790555060608201518160030190805190602001906137029291906161f2565b5060808201518160040160006101000a81548160ff02191690831515021790555060a08201518160040160016101000a81548160ff02191690831515021790555060c08201518160040160026101000a81548160ff0219169083151502179055509050506000600c549050600160113390806001815401808255809150509060018203906000526020600020016000909192909190916101000a81548173ffffffffffffffffffffffffffffffffffffffff021916908373ffffffffffffffffffffffffffffffffffffffff16021790555050507f5d5d81ca0768aad867a6bbc6b659be5eee0b4d514771c2c8abfc1aa638a8eac53384604051808373ffffffffffffffffffffffffffffffffffffffff1673ffffffffffffffffffffffffffffffffffffffff1681526020018060200180602001838103835284818151815260200191508051906020019080838360005b8381101561386f578082015181840152602081019050613854565b50505050905090810190601f16801561389c5780820380516001836020036101000a031916815260200191505b50838103825260088152602001807f52657461696c657200000000000000000000000000000000000000000000000081525060200194505050505060405180910390a180915050919050565b601360003373ffffffffffffffffffffffffffffffffffffffff1673ffffffffffffffffffffffffffffffffffffffff16815260200190815260200160002060009054906101000a900460ff168061398d5750601260009054906101000a900473ffffffffffffffffffffffffffffffffffffffff1673ffffffffffffffffffffffffffffffffffffffff163373ffffffffffffffffffffffffffffffffffffffff16145b6139ff576040517f08c379a000000000000000000000000000000000000000000000000000000000815260040180806020018281038252601c8152602001807f41636365737320746f206f6e6c792041646d696e73206f722043454f0000000081525060200191505060405180910390fd5b601460009054906101000a900460ff1615613a65576040517f08c379a000000000000000000000000000000000000000000000000000000000815260040180806020018281038252602a81526020018061639f602a913960400191505060405180910390fd5b6016600082815260200190815260200160002060009054906101000a900460ff16613af8576040517f08c379a00000000000000000000000000000000000000000000000000000000081526004018080602001828103825260138152602001807f4469616d6f6e64204e6f7420437265617465640000000000000000000000000081525060200191505060405180910390fd5b60006019600083815260200190815260200160002090506040518060400160405280600881526020017f5665726966696564000000000000000000000000000000000000000000000000815250816007019080519060200190613b5c9291906162cd565b505050565b601360003373ffffffffffffffffffffffffffffffffffffffff1673ffffffffffffffffffffffffffffffffffffffff16815260200190815260200160002060009054906101000a900460ff1680613c065750601260009054906101000a900473ffffffffffffffffffffffffffffffffffffffff1673ffffffffffffffffffffffffffffffffffffffff163373ffffffffffffffffffffffffffffffffffffffff16145b613c78576040517f08c379a000000000000000000000000000000000000000000000000000000000815260040180806020018281038252601c8152602001807f41636365737320746f206f6e6c792041646d696e73206f722043454f0000000081525060200191505060405180910390fd5b601460009054906101000a900460ff1615613cde576040517f08c379a000000000000000000000000000000000000000000000000000000000815260040180806020018281038252602a81526020018061639f602a913960400191505060405180910390fd5b6001601460006101000a81548160ff021916908315150217905550565b6060600f805480602002602001604051908101604052809291908181526020018280548015613d7f57602002820191906000526020600020905b8160009054906101000a900473ffffffffffffffffffffffffffffffffffffffff1673ffffffffffffffffffffffffffffffffffffffff1681526020019060010190808311613d35575b5050505050905090565b6060600a8054600181600116156101000203166002900480601f016020809104026020016040519081016040528092919081815260200182805460018160011615610100020316600290048015613e215780601f10613df657610100808354040283529160200191613e21565b820191906000526020600020905b815481529060010190602001808311613e0457829003601f168201915b5050505050905090565b601260009054906101000a900473ffffffffffffffffffffffffffffffffffffffff1681565b613e59615303565b73ffffffffffffffffffffffffffffffffffffffff168273ffffffffffffffffffffffffffffffffffffffff161415613efa576040517f08c379a00000000000000000000000000000000000000000000000000000000081526004018080602001828103825260198152602001807f4552433732313a20617070726f766520746f2063616c6c65720000000000000081525060200191505060405180910390fd5b8060046000613f07615303565b73ffffffffffffffffffffffffffffffffffffffff1673ffffffffffffffffffffffffffffffffffffffff16815260200190815260200160002060008473ffffffffffffffffffffffffffffffffffffffff1673ffffffffffffffffffffffffffffffffffffffff16815260200190815260200160002060006101000a81548160ff0219169083151502179055508173ffffffffffffffffffffffffffffffffffffffff16613fb4615303565b73ffffffffffffffffffffffffffffffffffffffff167f17307eab39ab6107e8899845ad3d59bd9653f200f220920489ca2b5937696c3183604051808215151515815260200191505060405180910390a35050565b61401a614014615303565b8361530b565b61406f576040517f08c379a000000000000000000000000000000000000000000000000000000000815260040180806020018281038252603181526020018061664a6031913960400191505060405180910390fd5b61407b84848484615620565b50505050565b606061408c82615291565b6140e1576040517f08c379a000000000000000000000000000000000000000000000000000000000815260040180806020018281038252602f8152602001806165cd602f913960400191505060405180910390fd5b600b60008381526020019081526020016000208054600181600116156101000203166002900480601f0160208091040260200160405190810160405280929190818152602001828054600181600116156101000203166002900480156141885780601f1061415d57610100808354040283529160200191614188565b820191906000526020600020905b81548152906001019060200180831161416b57829003601f168201915b50505050509050919050565b6000600e60003373ffffffffffffffffffffffffffffffffffffffff1673ffffffffffffffffffffffffffffffffffffffff16815260200190815260200160002060040160009054906101000a900460ff161561423c576040517f08c379a000000000000000000000000000000000000000000000000000000000815260040180806020018281038252602d81526020018061661d602d913960400191505060405180910390fd5b6040518060e00160405280600c60008154809291906001019190505581526020018381526020013373ffffffffffffffffffffffffffffffffffffffff1681526020016040518060400160405280600c81526020017f4d616e7566616374757265720000000000000000000000000000000000000000815250815260200160011515815260200160011515815260200160001515815250600e60003373ffffffffffffffffffffffffffffffffffffffff1673ffffffffffffffffffffffffffffffffffffffff1681526020019081526020016000206000820151816000015560208201518160010190805190602001906143389291906161f2565b5060408201518160020160006101000a81548173ffffffffffffffffffffffffffffffffffffffff021916908373ffffffffffffffffffffffffffffffffffffffff160217905550606082015181600301908051906020019061439c9291906161f2565b5060808201518160040160006101000a81548160ff02191690831515021790555060a08201518160040160016101000a81548160ff02191690831515021790555060c08201518160040160026101000a81548160ff0219169083151502179055509050506000600c5490506001600f3390806001815401808255809150509060018203906000526020600020016000909192909190916101000a81548173ffffffffffffffffffffffffffffffffffffffff021916908373ffffffffffffffffffffffffffffffffffffffff16021790555050507f5d5d81ca0768aad867a6bbc6b659be5eee0b4d514771c2c8abfc1aa638a8eac53384604051808373ffffffffffffffffffffffffffffffffffffffff1673ffffffffffffffffffffffffffffffffffffffff1681526020018060200180602001838103835284818151815260200191508051906020019080838360005b838110156145095780820151818401526020810190506144ee565b50505050905090810190601f1680156145365780820380516001836020036101000a031916815260200191505b508381038252600c8152602001807f4d616e756661637475726572000000000000000000000000000000000000000081525060200194505050505060405180910390a180915050919050565b60006016600083815260200190815260200160002060009054906101000a900460ff16614617576040517f08c379a00000000000000000000000000000000000000000000000000000000081526004018080602001828103825260138152602001807f4469616d6f6e64206e6f7420637265617465640000000000000000000000000081525060200191505060405180910390fd5b6040518060400160405280600881526020017f56657269666965640000000000000000000000000000000000000000000000008152506040516020018082805190602001908083835b602083106146835780518252602082019150602081019050602083039250614660565b6001836020036101000a038019825116818451168082178552505050505050905001915050604051602081830303815290604052805190602001206019600084815260200190815260200160002060070160405160200180828054600181600116156101000203166002900480156147325780601f10614710576101008083540402835291820191614732565b820191906000526020600020905b81548152906001019060200180831161471e575b505091505060405160208183030381529060405280519060200120149050919050565b60006016600083815260200190815260200160002060009054906101000a900460ff166147ea576040517f08c379a00000000000000000000000000000000000000000000000000000000081526004018080602001828103825260168152602001807f4469616d6f6e64206973206e6f7420637265617465640000000000000000000081525060200191505060405180910390fd5b6147f38261335d565b50919050565b606080606080606060006016600088815260200190815260200160002060009054906101000a900460ff16614896576040517f08c379a00000000000000000000000000000000000000000000000000000000081526004018080602001828103825260138152602001807f4469616d6f6e64206e6f7420637265617465640000000000000000000000000081525060200191505060405180910390fd5b601587815481106148a357fe5b9060005260206000209060080201600001601588815481106148c157fe5b9060005260206000209060080201600101601589815481106148df57fe5b906000526020600020906008020160020160158a815481106148fd57fe5b906000526020600020906008020160030160158b8154811061491b57fe5b906000526020600020906008020160040160158c8154811061493957fe5b906000526020600020906008020160050154858054600181600116156101000203166002900480601f0160208091040260200160405190810160405280929190818152602001828054600181600116156101000203166002900480156149e05780601f106149b5576101008083540402835291602001916149e0565b820191906000526020600020905b8154815290600101906020018083116149c357829003601f168201915b50505050509550848054600181600116156101000203166002900480601f016020809104026020016040519081016040528092919081815260200182805460018160011615610100020316600290048015614a7c5780601f10614a5157610100808354040283529160200191614a7c565b820191906000526020600020905b815481529060010190602001808311614a5f57829003601f168201915b50505050509450838054600181600116156101000203166002900480601f016020809104026020016040519081016040528092919081815260200182805460018160011615610100020316600290048015614b185780601f10614aed57610100808354040283529160200191614b18565b820191906000526020600020905b815481529060010190602001808311614afb57829003601f168201915b50505050509350828054600181600116156101000203166002900480601f016020809104026020016040519081016040528092919081815260200182805460018160011615610100020316600290048015614bb45780601f10614b8957610100808354040283529160200191614bb4565b820191906000526020600020905b815481529060010190602001808311614b9757829003601f168201915b50505050509250818054600181600116156101000203166002900480601f016020809104026020016040519081016040528092919081815260200182805460018160011615610100020316600290048015614c505780601f10614c2557610100808354040283529160200191614c50565b820191906000526020600020905b815481529060010190602001808311614c3357829003601f168201915b5050505050915095509550955095509550955091939550919395565b6000606060006060600d60009054906101000a900473ffffffffffffffffffffffffffffffffffffffff1673ffffffffffffffffffffffffffffffffffffffff163373ffffffffffffffffffffffffffffffffffffffff1614614d1a576040517f08c379a00000000000000000000000000000000000000000000000000000000081526004018080602001828103825260218152602001806165296021913960400191505060405180910390fd5b600e60008673ffffffffffffffffffffffffffffffffffffffff1673ffffffffffffffffffffffffffffffffffffffff16815260200190815260200160002060000154600e60008773ffffffffffffffffffffffffffffffffffffffff1673ffffffffffffffffffffffffffffffffffffffff168152602001908152602001600020600101600e60008873ffffffffffffffffffffffffffffffffffffffff1673ffffffffffffffffffffffffffffffffffffffff16815260200190815260200160002060020160009054906101000a900473ffffffffffffffffffffffffffffffffffffffff16600e60008973ffffffffffffffffffffffffffffffffffffffff1673ffffffffffffffffffffffffffffffffffffffff168152602001908152602001600020600301828054600181600116156101000203166002900480601f016020809104026020016040519081016040528092919081815260200182805460018160011615610100020316600290048015614ed95780601f10614eae57610100808354040283529160200191614ed9565b820191906000526020600020905b815481529060010190602001808311614ebc57829003601f168201915b50505050509250808054600181600116156101000203166002900480601f016020809104026020016040519081016040528092919081815260200182805460018160011615610100020316600290048015614f755780601f10614f4a57610100808354040283529160200191614f75565b820191906000526020600020905b815481529060010190602001808311614f5857829003601f168201915b5050505050905093509350935093509193509193565b6000600460008473ffffffffffffffffffffffffffffffffffffffff1673ffffffffffffffffffffffffffffffffffffffff16815260200190815260200160002060008373ffffffffffffffffffffffffffffffffffffffff1673ffffffffffffffffffffffffffffffffffffffff16815260200190815260200160002060009054906101000a900460ff16905092915050565b6060600d60009054906101000a900473ffffffffffffffffffffffffffffffffffffffff1673ffffffffffffffffffffffffffffffffffffffff163373ffffffffffffffffffffffffffffffffffffffff16146150c7576040517f08c379a00000000000000000000000000000000000000000000000000000000081526004018080602001828103825260218152602001806165296021913960400191505060405180910390fd5b601080548060200260200160405190810160405280929190818152602001828054801561514957602002820191906000526020600020905b8160009054906101000a900473ffffffffffffffffffffffffffffffffffffffff1673ffffffffffffffffffffffffffffffffffffffff16815260200190600101908083116150ff575b5050505050905090565b606060118054806020026020016040519081016040528092919081815260200182805480156151d757602002820191906000526020600020905b8160009054906101000a900473ffffffffffffffffffffffffffffffffffffffff1673ffffffffffffffffffffffffffffffffffffffff168152602001906001019080831161518d575b5050505050905090565b6000600d60009054906101000a900473ffffffffffffffffffffffffffffffffffffffff1673ffffffffffffffffffffffffffffffffffffffff163373ffffffffffffffffffffffffffffffffffffffff1614615289576040517f08c379a00000000000000000000000000000000000000000000000000000000081526004018080602001828103825260218152602001806165296021913960400191505060405180910390fd5b600c54905090565b6000806001600084815260200190815260200160002060009054906101000a900473ffffffffffffffffffffffffffffffffffffffff169050600073ffffffffffffffffffffffffffffffffffffffff168173ffffffffffffffffffffffffffffffffffffffff161415915050919050565b600033905090565b600061531682615291565b61536b576040517f08c379a000000000000000000000000000000000000000000000000000000000815260040180806020018281038252602c815260200180616472602c913960400191505060405180910390fd5b60006153768361335d565b90508073ffffffffffffffffffffffffffffffffffffffff168473ffffffffffffffffffffffffffffffffffffffff1614806153e557508373ffffffffffffffffffffffffffffffffffffffff166153cd84611a94565b73ffffffffffffffffffffffffffffffffffffffff16145b806153f657506153f58185614f8b565b5b91505092915050565b61540a838383615692565b61541483826158ed565b61541e8282615a8b565b505050565b6000600e60008373ffffffffffffffffffffffffffffffffffffffff1673ffffffffffffffffffffffffffffffffffffffff16815260200190815260200160002060040160009054906101000a900460ff166154e7576040517f08c379a00000000000000000000000000000000000000000000000000000000081526004018080602001828103825260138152602001807f55736572204e6f7420726567697374657265640000000000000000000000000081525060200191505060405180910390fd5b60405160200180807f4d616e7566616374757265720000000000000000000000000000000000000000815250600c01905060405160208183030381529060405280519060200120600e60008473ffffffffffffffffffffffffffffffffffffffff1673ffffffffffffffffffffffffffffffffffffffff16815260200190815260200160002060030160405160200180828054600181600116156101000203166002900480156155ce5780601f106155ac5761010080835404028352918201916155ce565b820191906000526020600020905b8154815290600101906020018083116155ba575b505091505060405160208183030381529060405280519060200120149050919050565b6155fb8282615b52565b6156058282615a8b565b61560e81615d6a565b5050565b600081600001549050919050565b61562b8484846153ff565b61563784848484615db6565b61568c576040517f08c379a00000000000000000000000000000000000000000000000000000000081526004018080602001828103825260328152602001806163f46032913960400191505060405180910390fd5b50505050565b8273ffffffffffffffffffffffffffffffffffffffff166156b28261335d565b73ffffffffffffffffffffffffffffffffffffffff161461571e576040517f08c379a00000000000000000000000000000000000000000000000000000000081526004018080602001828103825260298152602001806165a46029913960400191505060405180910390fd5b600073ffffffffffffffffffffffffffffffffffffffff168273ffffffffffffffffffffffffffffffffffffffff1614156157a4576040517f08c379a00000000000000000000000000000000000000000000000000000000081526004018080602001828103825260248152602001806164266024913960400191505060405180910390fd5b6157ad81615fa6565b6157f4600360008573ffffffffffffffffffffffffffffffffffffffff1673ffffffffffffffffffffffffffffffffffffffff168152602001908152602001600020616064565b61583b600360008473ffffffffffffffffffffffffffffffffffffffff1673ffffffffffffffffffffffffffffffffffffffff168152602001908152602001600020616087565b816001600083815260200190815260200160002060006101000a81548173ffffffffffffffffffffffffffffffffffffffff021916908373ffffffffffffffffffffffffffffffffffffffff160217905550808273ffffffffffffffffffffffffffffffffffffffff168473ffffffffffffffffffffffffffffffffffffffff167fddf252ad1be2c89b69c2b068fc378daa952ba7f163c4a11628f55a4df523b3ef60405160405180910390a4505050565b60006159456001600560008673ffffffffffffffffffffffffffffffffffffffff1673ffffffffffffffffffffffffffffffffffffffff1681526020019081526020016000208054905061609d90919063ffffffff16565b9050600060066000848152602001908152602001600020549050818114615a32576000600560008673ffffffffffffffffffffffffffffffffffffffff1673ffffffffffffffffffffffffffffffffffffffff16815260200190815260200160002083815481106159b257fe5b9060005260206000200154905080600560008773ffffffffffffffffffffffffffffffffffffffff1673ffffffffffffffffffffffffffffffffffffffff1681526020019081526020016000208381548110615a0a57fe5b9060005260206000200181905550816006600083815260200190815260200160002081905550505b600560008573ffffffffffffffffffffffffffffffffffffffff1673ffffffffffffffffffffffffffffffffffffffff168152602001908152602001600020805480919060019003615a84919061634d565b5050505050565b600560008373ffffffffffffffffffffffffffffffffffffffff1673ffffffffffffffffffffffffffffffffffffffff168152602001908152602001600020805490506006600083815260200190815260200160002081905550600560008373ffffffffffffffffffffffffffffffffffffffff1673ffffffffffffffffffffffffffffffffffffffff1681526020019081526020016000208190806001815401808255809150509060018203906000526020600020016000909192909190915055505050565b600073ffffffffffffffffffffffffffffffffffffffff168273ffffffffffffffffffffffffffffffffffffffff161415615bf5576040517f08c379a00000000000000000000000000000000000000000000000000000000081526004018080602001828103825260208152602001807f4552433732313a206d696e7420746f20746865207a65726f206164647265737381525060200191505060405180910390fd5b615bfe81615291565b15615c71576040517f08c379a000000000000000000000000000000000000000000000000000000000815260040180806020018281038252601c8152602001807f4552433732313a20746f6b656e20616c7265616479206d696e7465640000000081525060200191505060405180910390fd5b816001600083815260200190815260200160002060006101000a81548173ffffffffffffffffffffffffffffffffffffffff021916908373ffffffffffffffffffffffffffffffffffffffff160217905550615d0a600360008473ffffffffffffffffffffffffffffffffffffffff1673ffffffffffffffffffffffffffffffffffffffff168152602001908152602001600020616087565b808273ffffffffffffffffffffffffffffffffffffffff16600073ffffffffffffffffffffffffffffffffffffffff167fddf252ad1be2c89b69c2b068fc378daa952ba7f163c4a11628f55a4df523b3ef60405160405180910390a45050565b6007805490506008600083815260200190815260200160002081905550600781908060018154018082558091505090600182039060005260206000200160009091929091909150555050565b6000615dd78473ffffffffffffffffffffffffffffffffffffffff166160e7565b615de45760019050615f9e565b60008473ffffffffffffffffffffffffffffffffffffffff1663150b7a02615e0a615303565b8887876040518563ffffffff1660e01b8152600401808573ffffffffffffffffffffffffffffffffffffffff1673ffffffffffffffffffffffffffffffffffffffff1681526020018473ffffffffffffffffffffffffffffffffffffffff1673ffffffffffffffffffffffffffffffffffffffff16815260200183815260200180602001828103825283818151815260200191508051906020019080838360005b83811015615ec6578082015181840152602081019050615eab565b50505050905090810190601f168015615ef35780820380516001836020036101000a031916815260200191505b5095505050505050602060405180830381600087803b158015615f1557600080fd5b505af1158015615f29573d6000803e3d6000fd5b505050506040513d6020811015615f3f57600080fd5b8101908080519060200190929190505050905063150b7a0260e01b7bffffffffffffffffffffffffffffffffffffffffffffffffffffffff1916817bffffffffffffffffffffffffffffffffffffffffffffffffffffffff1916149150505b949350505050565b600073ffffffffffffffffffffffffffffffffffffffff166002600083815260200190815260200160002060009054906101000a900473ffffffffffffffffffffffffffffffffffffffff1673ffffffffffffffffffffffffffffffffffffffff16146160615760006002600083815260200190815260200160002060006101000a81548173ffffffffffffffffffffffffffffffffffffffff021916908373ffffffffffffffffffffffffffffffffffffffff1602179055505b50565b61607c6001826000015461609d90919063ffffffff16565b816000018190555050565b6001816000016000828254019250508190555050565b60006160df83836040518060400160405280601e81526020017f536166654d6174683a207375627472616374696f6e206f766572666c6f770000815250616132565b905092915050565b60008060007fc5d2460186f7233c927e7db2dcc703c0e500b653ca82273b7bfad8045d85a47060001b9050833f91506000801b82141580156161295750808214155b92505050919050565b60008383111582906161df576040517f08c379a00000000000000000000000000000000000000000000000000000000081526004018080602001828103825283818151815260200191508051906020019080838360005b838110156161a4578082015181840152602081019050616189565b50505050905090810190601f1680156161d15780820380516001836020036101000a031916815260200191505b509250505060405180910390fd5b5060008385039050809150509392505050565b828054600181600116156101000203166002900490600052602060002090601f016020900481019282601f1061623357805160ff1916838001178555616261565b82800160010185558215616261579182015b82811115616260578251825591602001919060010190616245565b5b50905061626e9190616379565b5090565b604051806101000160405280606081526020016060815260200160608152602001606081526020016060815260200160008152602001600073ffffffffffffffffffffffffffffffffffffffff168152602001606081525090565b828054600181600116156101000203166002900490600052602060002090601f016020900481019282601f1061630e57805160ff191683800117855561633c565b8280016001018555821561633c579182015b8281111561633b578251825591602001919060010190616320565b5b5090506163499190616379565b5090565b815481835581811115616374578183600052602060002091820191016163739190616379565b5b505050565b61639b91905b8082111561639757600081600090555060010161637f565b5090565b9056fe436f6e74726163742069732061637469766520616e6420617661696c61626c6520666f722063616c6c73455243373231456e756d657261626c653a206f776e657220696e646578206f7574206f6620626f756e64734552433732313a207472616e7366657220746f206e6f6e20455243373231526563656976657220696d706c656d656e7465724552433732313a207472616e7366657220746f20746865207a65726f20616464726573734f6e6c792052657461696c6572206861732061636365737320746f20646f20746869732063616c6c4552433732313a206f70657261746f7220717565727920666f72206e6f6e6578697374656e7420746f6b656e4552433732313a20617070726f76652063616c6c6572206973206e6f74206f776e6572206e6f7220617070726f76656420666f7220616c6c4552433732313a2062616c616e636520717565727920666f7220746865207a65726f20616464726573734552433732313a206f776e657220717565727920666f72206e6f6e6578697374656e7420746f6b656e4f6e6c79204f776e65722063616e2043616c6c20746869732066756e6374696f6e41646472657373206973205a65726f20616464726573732e20526571756972652056616c696420616464726573734552433732313a20617070726f76656420717565727920666f72206e6f6e6578697374656e7420746f6b656e4552433732313a207472616e73666572206f6620746f6b656e2074686174206973206e6f74206f776e4552433732314d657461646174613a2055524920717565727920666f72206e6f6e6578697374656e7420746f6b656e4552433732313a20617070726f76616c20746f2063757272656e74206f776e6572596f75206861766520616c72656164792052656769737465726420666f722074686973205573657220547970654552433732313a207472616e736665722063616c6c6572206973206e6f74206f776e6572206e6f7220617070726f766564455243373231456e756d657261626c653a20676c6f62616c20696e646578206f7574206f6620626f756e64734f6e6c79204d616e7566616374757265206861732061636365737320746f20646f20746869732063616c6ca165627a7a723058209df52abbffd699ef9611fcbcb8ed49b802a702187577ccf89bc7d36fda1ec04b0029",
  "source": "pragma solidity >=0.4.21 <0.6.0;\n\nimport '../node_modules/openzeppelin-solidity/contracts/token/ERC721/ERC721Full.sol';\nimport '../node_modules/openzeppelin-solidity/contracts/token/ERC721/ERC721Full.sol';\nimport '../contracts/Registration.sol';\nimport '../contracts/Access.sol';\n\n\ncontract CreateDiamond is ERC721,ERC721Full, df_Registration,df_Access{\nconstructor() ERC721Full(\"DiamondFactory\", \"DF\") public {}\n\n  struct Diamond {\n    string gemName;\n    string gemCountry;\n    string gemcolor;\n    string gemclarity;\n    string gemcut;\n    uint256 gemcarat;\n    address owner;\n    string status;\n  }\n  using SafeMath for uint256;\n\n  Diamond[] public diamonds;\n\n  string constant STATUS_PENDING = \"Pending\";\n  string constant STATUS_VERIFIED = \"Verified\";\n\n///Events.\n event eventcreateDiamond(address _address, uint256 _diamondID);\n event eventtransferOwnership(address _from, address _to, uint256 _diamondID);\n event TransactionHistory(\n      uint256 _diamondID,\n      address _seller,\n      address _buyer,\n      uint256 _Price,\n      uint256 timestamp\n    );\n\n mapping(uint256 => bool) internal diamondExists;  //Check if Diamond Exists\n mapping(address => uint256) internal balances;      //Check this address has how many Diamonds\n mapping(uint256 => address) internal diamondIdToOwner; //Map Diamond ID to owner.\n mapping(uint256 => Diamond) internal diamondMetadata;\n\n function createDiamond(\n    string memory _gemName,\n    string memory _gemCountry,\n    string memory _gemcolor,\n    string memory _gemclarity,\n    string memory _gemcut,\n    uint256 _gemcarat)\n    public\n    onlyManufacturer\n    whenNotPaused{\n    Diamond memory _diamond = Diamond(_gemName,_gemCountry,_gemcolor,_gemclarity,_gemcut,_gemcarat,msg.sender,STATUS_PENDING);\n    uint _diamondID = diamonds.push(_diamond);\n    _mint(msg.sender, _diamondID);\n    diamondExists[_diamondID] = true;\n    diamondMetadata[_diamondID] = _diamond;\n    emit eventcreateDiamond(msg.sender, _diamondID);\n  }\n\nfunction VerifyDiamond(uint256 _diamondID)\n    public\n    onlyAdminOrCEO\n    whenNotPaused{\n      require(diamondExists[_diamondID],\"Diamond Not Created\");\n      Diamond storage diamond = diamondMetadata[_diamondID];\n      diamond.status = STATUS_VERIFIED;\n    }\n\nfunction _isDiamondVerified(uint256 _diamondID) public view returns (bool) {\n      require(diamondExists[_diamondID],\"Diamond not created\");\n      return(keccak256(abi.encodePacked(diamondMetadata[_diamondID].status)) == keccak256(abi.encodePacked(STATUS_VERIFIED)));\n    }\n\nfunction _isManufacturer(address _address) internal view returns (bool) {\n      require(users[_address]._registered,\"User Not registered\");\n      return(keccak256(abi.encodePacked(users[_address]._userType)) == keccak256(abi.encodePacked(\"Manufacturer\")));\n    }\n\nfunction _isRetailer(address _address) internal view returns (bool) {\n      require(users[_address]._registered,\"User Not registered\");\n      return(keccak256(abi.encodePacked(users[_address]._userType)) == keccak256(abi.encodePacked(\"Retailer\")));\n    }\n\nfunction _BuyfromManufacturer(\n      uint256 _diamondID,\n      address _seller,\n      address _buyer,\n      uint256 _Price\n      )\n      public\n      onlyRetailer\n      whenNotPaused{\n      require(_isDiamondVerified(_diamondID),\"Diamond is not verified\");\n      require(_isManufacturer(_seller),\"Seller is not manufacturer\");\n      Diamond storage diamond = diamondMetadata[_diamondID];\n      diamond.owner = _buyer;\n      _transferFrom(_seller, _buyer, _diamondID);\n      emit TransactionHistory(_diamondID,_seller,_buyer,_Price,now);\n    }\n\n function getDiamond(uint _diamondID) public view returns(\n  string memory,\n  string memory,\n  string memory,\n  string memory,\n  string memory,\n  uint256){\n    require(diamondExists[_diamondID],\"Diamond not created\");\n    return(\n    diamonds[_diamondID].gemName,\n    diamonds[_diamondID].gemCountry,\n    diamonds[_diamondID].gemcolor,\n    diamonds[_diamondID].gemclarity,\n    diamonds[_diamondID].gemcut,\n    diamonds[_diamondID].gemcarat);\n    }\n\n  function ownerofToken(uint256 _diamondID) public view returns (address) {\n      require(diamondExists[_diamondID],\"Diamond is not created\");\n      ownerOf(_diamondID);\n    }\n}\n\n",
  "sourcePath": "/home/vinayjain/Projects/DiamondFactory/contracts/Diamonds.sol",
  "compiler": {
    "name": "solc",
    "version": "0.5.8+commit.23d335f2.Emscripten.clang"
  },
  "schemaVersion": "3.0.16",
  "updatedAt": "2019-11-30T22:56:16.538Z",
  "devdoc": {
    "methods": {
      "approve(address,uint256)": {
        "details": "Approves another address to transfer the given token ID The zero address indicates there is no approved address. There can only be one approved address per token at a given time. Can only be called by the token owner or an approved operator.",
        "params": {
          "to": "address to be approved for the given token ID",
          "tokenId": "uint256 ID of the token to be approved"
        }
      },
      "balanceOf(address)": {
        "details": "Gets the balance of the specified address.",
        "params": {
          "owner": "address to query the balance of"
        },
        "return": "uint256 representing the amount owned by the passed address"
      },
      "getApproved(uint256)": {
        "details": "Gets the approved address for a token ID, or zero if no address set Reverts if the token ID does not exist.",
        "params": {
          "tokenId": "uint256 ID of the token to query the approval of"
        },
        "return": "address currently approved for the given token ID"
      },
      "isApprovedForAll(address,address)": {
        "details": "Tells whether an operator is approved by a given owner.",
        "params": {
          "operator": "operator address which you want to query the approval of",
          "owner": "owner address which you want to query the approval of"
        },
        "return": "bool whether the given operator is approved by the given owner"
      },
      "name()": {
        "details": "Gets the token name.",
        "return": "string representing the token name"
      },
      "ownerOf(uint256)": {
        "details": "Gets the owner of the specified token ID.",
        "params": {
          "tokenId": "uint256 ID of the token to query the owner of"
        },
        "return": "address currently marked as the owner of the given token ID"
      },
      "safeTransferFrom(address,address,uint256)": {
        "details": "Safely transfers the ownership of a given token ID to another address If the target address is a contract, it must implement {IERC721Receiver-onERC721Received}, which is called upon a safe transfer, and return the magic value `bytes4(keccak256(\"onERC721Received(address,address,uint256,bytes)\"))`; otherwise, the transfer is reverted. Requires the msg.sender to be the owner, approved, or operator",
        "params": {
          "from": "current owner of the token",
          "to": "address to receive the ownership of the given token ID",
          "tokenId": "uint256 ID of the token to be transferred"
        }
      },
      "safeTransferFrom(address,address,uint256,bytes)": {
        "details": "Safely transfers the ownership of a given token ID to another address If the target address is a contract, it must implement {IERC721Receiver-onERC721Received}, which is called upon a safe transfer, and return the magic value `bytes4(keccak256(\"onERC721Received(address,address,uint256,bytes)\"))`; otherwise, the transfer is reverted. Requires the _msgSender() to be the owner, approved, or operator",
        "params": {
          "_data": "bytes data to send along with a safe transfer check",
          "from": "current owner of the token",
          "to": "address to receive the ownership of the given token ID",
          "tokenId": "uint256 ID of the token to be transferred"
        }
      },
      "setApprovalForAll(address,bool)": {
        "details": "Sets or unsets the approval of a given operator An operator is allowed to transfer all tokens of the sender on their behalf.",
        "params": {
          "approved": "representing the status of the approval to be set",
          "to": "operator address to set the approval"
        }
      },
      "supportsInterface(bytes4)": {
        "details": "See {IERC165-supportsInterface}.     * Time complexity O(1), guaranteed to always use less than 30 000 gas."
      },
      "symbol()": {
        "details": "Gets the token symbol.",
        "return": "string representing the token symbol"
      },
      "tokenByIndex(uint256)": {
        "details": "Gets the token ID at a given index of all the tokens in this contract Reverts if the index is greater or equal to the total number of tokens.",
        "params": {
          "index": "uint256 representing the index to be accessed of the tokens list"
        },
        "return": "uint256 token ID at the given index of the tokens list"
      },
      "tokenOfOwnerByIndex(address,uint256)": {
        "details": "Gets the token ID at a given index of the tokens list of the requested owner.",
        "params": {
          "index": "uint256 representing the index to be accessed of the requested tokens list",
          "owner": "address owning the tokens list to be accessed"
        },
        "return": "uint256 token ID at the given index of the tokens list owned by the requested address"
      },
      "tokenURI(uint256)": {
        "details": "Returns an URI for a given token ID. Throws if the token ID does not exist. May return an empty string.",
        "params": {
          "tokenId": "uint256 ID of the token to query"
        }
      },
      "totalSupply()": {
        "details": "Gets the total amount of tokens stored by the contract.",
        "return": "uint256 representing the total amount of tokens"
      },
      "transferFrom(address,address,uint256)": {
        "details": "Transfers the ownership of a given token ID to another address. Usage of this method is discouraged, use {safeTransferFrom} whenever possible. Requires the msg.sender to be the owner, approved, or operator.",
        "params": {
          "from": "current owner of the token",
          "to": "address to receive the ownership of the given token ID",
          "tokenId": "uint256 ID of the token to be transferred"
        }
      }
    }
  },
  "userdoc": {
    "methods": {
      "pause()": {
        "notice": "Creating Pause function; so that any bug hits smart contract can be paused instead of being self-destructed"
      }
    }
  }
}