{
  "contractName": "df_Access",
  "abi": [
    {
      "constant": true,
      "inputs": [
        {
          "name": "",
          "type": "address"
        }
      ],
      "name": "admins",
      "outputs": [
        {
          "name": "",
          "type": "bool"
        }
      ],
      "payable": false,
      "stateMutability": "view",
      "type": "function"
    },
    {
      "constant": true,
      "inputs": [],
      "name": "paused",
      "outputs": [
        {
          "name": "",
          "type": "bool"
        }
      ],
      "payable": false,
      "stateMutability": "view",
      "type": "function"
    },
    {
      "constant": true,
      "inputs": [],
      "name": "CEO",
      "outputs": [
        {
          "name": "",
          "type": "address"
        }
      ],
      "payable": false,
      "stateMutability": "view",
      "type": "function"
    },
    {
      "constant": false,
      "inputs": [
        {
          "name": "_newCEO",
          "type": "address"
        }
      ],
      "name": "setCEO",
      "outputs": [],
      "payable": false,
      "stateMutability": "nonpayable",
      "type": "function"
    },
    {
      "constant": false,
      "inputs": [
        {
          "name": "_newAdmin",
          "type": "address"
        },
        {
          "name": "isAdmin",
          "type": "bool"
        }
      ],
      "name": "setAdmin",
      "outputs": [],
      "payable": false,
      "stateMutability": "nonpayable",
      "type": "function"
    },
    {
      "constant": false,
      "inputs": [],
      "name": "pause",
      "outputs": [],
      "payable": false,
      "stateMutability": "nonpayable",
      "type": "function"
    },
    {
      "constant": false,
      "inputs": [],
      "name": "unpause",
      "outputs": [],
      "payable": false,
      "stateMutability": "nonpayable",
      "type": "function"
    }
  ],
  "bytecode": "0x60806040526000600260006101000a81548160ff0219169083151502179055506002600355600260045534801561003557600080fd5b506108f6806100456000396000f3fe608060405234801561001057600080fd5b506004361061007d5760003560e01c80634b0bddd21161005b5780634b0bddd21461012c5780635c975abb1461017c5780638456cb591461019e578063a1088571146101a85761007d565b806327d7874c146100825780633f4ba83a146100c6578063429b62e5146100d0575b600080fd5b6100c46004803603602081101561009857600080fd5b81019080803573ffffffffffffffffffffffffffffffffffffffff1690602001909291905050506101f2565b005b6100ce61037d565b005b610112600480360360208110156100e657600080fd5b81019080803573ffffffffffffffffffffffffffffffffffffffff1690602001909291905050506104de565b604051808215151515815260200191505060405180910390f35b61017a6004803603604081101561014257600080fd5b81019080803573ffffffffffffffffffffffffffffffffffffffff1690602001909291908035151590602001909291905050506104fe565b005b6101846106a1565b604051808215151515815260200191505060405180910390f35b6101a66106b4565b005b6101b061084d565b604051808273ffffffffffffffffffffffffffffffffffffffff1673ffffffffffffffffffffffffffffffffffffffff16815260200191505060405180910390f35b6000809054906101000a900473ffffffffffffffffffffffffffffffffffffffff1673ffffffffffffffffffffffffffffffffffffffff163373ffffffffffffffffffffffffffffffffffffffff16146102b4576040517f08c379a00000000000000000000000000000000000000000000000000000000081526004018080602001828103825260178152602001807f41636365737320746f204446202d2043454f206f6e6c7900000000000000000081525060200191505060405180910390fd5b600073ffffffffffffffffffffffffffffffffffffffff168173ffffffffffffffffffffffffffffffffffffffff16141561033a576040517f08c379a000000000000000000000000000000000000000000000000000000000815260040180806020018281038252602e81526020018061089d602e913960400191505060405180910390fd5b806000806101000a81548173ffffffffffffffffffffffffffffffffffffffff021916908373ffffffffffffffffffffffffffffffffffffffff16021790555050565b6000809054906101000a900473ffffffffffffffffffffffffffffffffffffffff1673ffffffffffffffffffffffffffffffffffffffff163373ffffffffffffffffffffffffffffffffffffffff161461043f576040517f08c379a00000000000000000000000000000000000000000000000000000000081526004018080602001828103825260178152602001807f41636365737320746f204446202d2043454f206f6e6c7900000000000000000081525060200191505060405180910390fd5b600260009054906101000a900460ff166104c1576040517f08c379a00000000000000000000000000000000000000000000000000000000081526004018080602001828103825260128152602001807f436f6e747261637420697320706175736564000000000000000000000000000081525060200191505060405180910390fd5b6000600260006101000a81548160ff021916908315150217905550565b60016020528060005260406000206000915054906101000a900460ff1681565b6000809054906101000a900473ffffffffffffffffffffffffffffffffffffffff1673ffffffffffffffffffffffffffffffffffffffff163373ffffffffffffffffffffffffffffffffffffffff16146105c0576040517f08c379a00000000000000000000000000000000000000000000000000000000081526004018080602001828103825260178152602001807f41636365737320746f204446202d2043454f206f6e6c7900000000000000000081525060200191505060405180910390fd5b600073ffffffffffffffffffffffffffffffffffffffff168273ffffffffffffffffffffffffffffffffffffffff161415610646576040517f08c379a000000000000000000000000000000000000000000000000000000000815260040180806020018281038252602e81526020018061089d602e913960400191505060405180910390fd5b80600160008473ffffffffffffffffffffffffffffffffffffffff1673ffffffffffffffffffffffffffffffffffffffff16815260200190815260200160002060006101000a81548160ff0219169083151502179055505050565b600260009054906101000a900460ff1681565b600160003373ffffffffffffffffffffffffffffffffffffffff1673ffffffffffffffffffffffffffffffffffffffff16815260200190815260200160002060009054906101000a900460ff168061075857506000809054906101000a900473ffffffffffffffffffffffffffffffffffffffff1673ffffffffffffffffffffffffffffffffffffffff163373ffffffffffffffffffffffffffffffffffffffff16145b6107ca576040517f08c379a000000000000000000000000000000000000000000000000000000000815260040180806020018281038252601c8152602001807f41636365737320746f206f6e6c792041646d696e73206f722043454f0000000081525060200191505060405180910390fd5b600260009054906101000a900460ff1615610830576040517f08c379a000000000000000000000000000000000000000000000000000000000815260040180806020018281038252602a815260200180610873602a913960400191505060405180910390fd5b6001600260006101000a81548160ff021916908315150217905550565b6000809054906101000a900473ffffffffffffffffffffffffffffffffffffffff168156fe436f6e74726163742069732061637469766520616e6420617661696c61626c6520666f722063616c6c7341646472657373206973205a65726f20616464726573732e20526571756972652056616c69642061646472657373a165627a7a72305820c75486f0909f1bfdff924ec6e323659150928594924e4f55e1c6336167f1384f0029",
  "source": "pragma solidity ^0.5.0;\n\ncontract df_Access{\n   address public CEO;\n   mapping (address => bool) public admins;\n   bool public paused = false;\n   uint256 internal conversionrateManufacture = 2;\n   uint256 internal conversionrateRetail = 2;\n\nmodifier onlyCEO(){\n    require(msg.sender==CEO,\"Access to DF - CEO only\");\n    _;\n    }\n\nmodifier onlyAdmin() {\n    require(admins[msg.sender],\"Access to DF - Admins only\");\n      _;\n    }\n\n///Modifier to allow actions only when the contract IS NOT paused\nmodifier whenNotPaused() {\n      require(!paused,\"Contract is active and available for calls\");\n      _;\n    }\n\nmodifier onlyAdminOrCEO() {\n      require(admins[msg.sender] || msg.sender == CEO, \"Access to only Admins or CEO\");\n      _;\n    }\n\n///Modifier to allow actions only when the contract Is paused\n    modifier whenPaused {\n      require(paused,\"Contract is paused\");\n      _;\n    }\n\nfunction setCEO(address _newCEO) external onlyCEO {\n      require(_newCEO != address(0),\"Address is Zero address. Require Valid address\");\n      CEO = _newCEO;\n    }\n\n    function setAdmin(address _newAdmin, bool isAdmin) external onlyCEO {\n      require(_newAdmin != address(0),\"Address is Zero address. Require Valid address\");\n      admins[_newAdmin] = isAdmin;\n    }\n\n    ///  Creating Pause function; so that any bug hits smart contract can be paused\n    /// instead of being self-destructed\n    function pause() external onlyAdminOrCEO whenNotPaused {\n      paused = true;\n    }\n\n    function unpause() external onlyCEO whenPaused {\n       paused = false;\n    }\n}",
  "sourcePath": "/home/vinayjain/Projects/DiamondFactory/contracts/Access.sol",
  "compiler": {
    "name": "solc",
    "version": "0.5.8+commit.23d335f2.Emscripten.clang"
  },
  "schemaVersion": "3.0.16",
  "updatedAt": "2019-12-13T13:30:57.793Z",
  "devdoc": {
    "methods": {}
  },
  "userdoc": {
    "methods": {
      "pause()": {
        "notice": "Creating Pause function; so that any bug hits smart contract can be paused instead of being self-destructed"
      }
    }
  }
}