{
  "contractName": "df_Registration",
  "abi": [
    {
      "constant": true,
      "inputs": [
        {
          "name": "",
          "type": "address"
        }
      ],
      "name": "users",
      "outputs": [
        {
          "name": "_userID",
          "type": "uint256"
        },
        {
          "name": "_userName",
          "type": "string"
        },
        {
          "name": "_address",
          "type": "address"
        },
        {
          "name": "_userType",
          "type": "string"
        },
        {
          "name": "_registered",
          "type": "bool"
        },
        {
          "name": "_ismanufacturer",
          "type": "bool"
        },
        {
          "name": "_isretailer",
          "type": "bool"
        }
      ],
      "payable": false,
      "stateMutability": "view",
      "type": "function"
    },
    {
      "inputs": [],
      "payable": false,
      "stateMutability": "nonpayable",
      "type": "constructor"
    },
    {
      "anonymous": false,
      "inputs": [
        {
          "indexed": false,
          "name": "_address",
          "type": "address"
        },
        {
          "indexed": false,
          "name": "_name",
          "type": "string"
        },
        {
          "indexed": false,
          "name": "_usertype",
          "type": "string"
        }
      ],
      "name": "registered",
      "type": "event"
    },
    {
      "constant": false,
      "inputs": [
        {
          "name": "name",
          "type": "string"
        }
      ],
      "name": "registerManufacture",
      "outputs": [
        {
          "name": "",
          "type": "uint256"
        }
      ],
      "payable": false,
      "stateMutability": "nonpayable",
      "type": "function"
    },
    {
      "constant": false,
      "inputs": [
        {
          "name": "name",
          "type": "string"
        }
      ],
      "name": "registerRetailer",
      "outputs": [
        {
          "name": "",
          "type": "uint256"
        }
      ],
      "payable": false,
      "stateMutability": "nonpayable",
      "type": "function"
    },
    {
      "constant": false,
      "inputs": [
        {
          "name": "name",
          "type": "string"
        }
      ],
      "name": "registerCustomer",
      "outputs": [
        {
          "name": "",
          "type": "uint256"
        }
      ],
      "payable": false,
      "stateMutability": "nonpayable",
      "type": "function"
    },
    {
      "constant": true,
      "inputs": [],
      "name": "getRegisteredManufacture",
      "outputs": [
        {
          "name": "",
          "type": "address[]"
        }
      ],
      "payable": false,
      "stateMutability": "view",
      "type": "function"
    },
    {
      "constant": true,
      "inputs": [],
      "name": "getRegisteredCustomer",
      "outputs": [
        {
          "name": "",
          "type": "address[]"
        }
      ],
      "payable": false,
      "stateMutability": "view",
      "type": "function"
    },
    {
      "constant": true,
      "inputs": [],
      "name": "getRegisteredRetailer",
      "outputs": [
        {
          "name": "",
          "type": "address[]"
        }
      ],
      "payable": false,
      "stateMutability": "view",
      "type": "function"
    },
    {
      "constant": true,
      "inputs": [
        {
          "name": "_address",
          "type": "address"
        }
      ],
      "name": "getRegisteredUser",
      "outputs": [
        {
          "name": "",
          "type": "uint256"
        },
        {
          "name": "",
          "type": "string"
        },
        {
          "name": "",
          "type": "address"
        },
        {
          "name": "",
          "type": "string"
        }
      ],
      "payable": false,
      "stateMutability": "view",
      "type": "function"
    },
    {
      "constant": true,
      "inputs": [],
      "name": "countUsers",
      "outputs": [
        {
          "name": "",
          "type": "uint256"
        }
      ],
      "payable": false,
      "stateMutability": "view",
      "type": "function"
    },
    {
      "constant": true,
      "inputs": [],
      "name": "_onlyManufacturer",
      "outputs": [
        {
          "name": "success",
          "type": "bool"
        }
      ],
      "payable": false,
      "stateMutability": "view",
      "type": "function"
    },
    {
      "constant": true,
      "inputs": [],
      "name": "_onlyRetailer",
      "outputs": [
        {
          "name": "success",
          "type": "bool"
        }
      ],
      "payable": false,
      "stateMutability": "view",
      "type": "function"
    },
    {
      "constant": true,
      "inputs": [
        {
          "name": "_address",
          "type": "address"
        }
      ],
      "name": "_isRegistered",
      "outputs": [
        {
          "name": "success",
          "type": "bool"
        }
      ],
      "payable": false,
      "stateMutability": "view",
      "type": "function"
    },
    {
      "constant": true,
      "inputs": [
        {
          "name": "_address",
          "type": "address"
        }
      ],
      "name": "_isUserType",
      "outputs": [
        {
          "name": "",
          "type": "string"
        }
      ],
      "payable": false,
      "stateMutability": "view",
      "type": "function"
    }
  ],
  "bytecode": "0x60806040526000805534801561001457600080fd5b5033600160006101000a81548173ffffffffffffffffffffffffffffffffffffffff021916908373ffffffffffffffffffffffffffffffffffffffff160217905550612069806100656000396000f3fe608060405234801561001057600080fd5b50600436106100cf5760003560e01c8063b4e3fa391161008c578063e9c888a311610066578063e9c888a3146107c2578063eec20b4014610821578063f355d0dc14610843578063f8fb1d0f146108a2576100cf565b8063b4e3fa3914610534578063d1ab681314610590578063e54a29bb1461065f576100cf565b80631378d806146100d457806324670177146101a35780634cdb1b4b14610260578063754f77db146102825780638668c68414610351578063a87430ba146103b0575b600080fd5b61018d600480360360208110156100ea57600080fd5b810190808035906020019064010000000081111561010757600080fd5b82018360208201111561011957600080fd5b8035906020019184600183028401116401000000008311171561013b57600080fd5b91908080601f016020809104026020016040519081016040528093929190818152602001838380828437600081840152601f19601f8201169050808301925050505050505091929192905050506108c0565b6040518082815260200191505060405180910390f35b6101e5600480360360208110156101b957600080fd5b81019080803573ffffffffffffffffffffffffffffffffffffffff169060200190929190505050610cac565b6040518080602001828103825283818151815260200191508051906020019080838360005b8381101561022557808201518184015260208101905061020a565b50505050905090810190601f1680156102525780820380516001836020036101000a031916815260200191505b509250505060405180910390f35b610268610d90565b604051808215151515815260200191505060405180910390f35b61033b6004803603602081101561029857600080fd5b81019080803590602001906401000000008111156102b557600080fd5b8201836020820111156102c757600080fd5b803590602001918460018302840111640100000000831117156102e957600080fd5b91908080601f016020809104026020016040519081016040528093929190818152602001838380828437600081840152601f19601f820116905080830192505050505050509192919290505050610e3f565b6040518082815260200191505060405180910390f35b61035961122b565b6040518080602001828103825283818151815260200191508051906020019060200280838360005b8381101561039c578082015181840152602081019050610381565b505050509050019250505060405180910390f35b6103f2600480360360208110156103c657600080fd5b81019080803573ffffffffffffffffffffffffffffffffffffffff1690602001909291905050506112b9565b60405180888152602001806020018773ffffffffffffffffffffffffffffffffffffffff1673ffffffffffffffffffffffffffffffffffffffff16815260200180602001861515151581526020018515151515815260200184151515158152602001838103835289818151815260200191508051906020019080838360005b8381101561048c578082015181840152602081019050610471565b50505050905090810190601f1680156104b95780820380516001836020036101000a031916815260200191505b50838103825287818151815260200191508051906020019080838360005b838110156104f25780820151818401526020810190506104d7565b50505050905090810190601f16801561051f5780820380516001836020036101000a031916815260200191505b50995050505050505050505060405180910390f35b6105766004803603602081101561054a57600080fd5b81019080803573ffffffffffffffffffffffffffffffffffffffff169060200190929190505050611472565b604051808215151515815260200191505060405180910390f35b610649600480360360208110156105a657600080fd5b81019080803590602001906401000000008111156105c357600080fd5b8201836020820111156105d557600080fd5b803590602001918460018302840111640100000000831117156105f757600080fd5b91908080601f016020809104026020016040519081016040528093929190818152602001838380828437600081840152601f19601f8201169050808301925050505050505091929192905050506114cb565b6040518082815260200191505060405180910390f35b6106a16004803603602081101561067557600080fd5b81019080803573ffffffffffffffffffffffffffffffffffffffff1690602001909291905050506118b7565b60405180858152602001806020018473ffffffffffffffffffffffffffffffffffffffff1673ffffffffffffffffffffffffffffffffffffffff16815260200180602001838103835286818151815260200191508051906020019080838360005b8381101561071d578082015181840152602081019050610702565b50505050905090810190601f16801561074a5780820380516001836020036101000a031916815260200191505b50838103825284818151815260200191508051906020019080838360005b83811015610783578082015181840152602081019050610768565b50505050905090810190601f1680156107b05780820380516001836020036101000a031916815260200191505b50965050505050505060405180910390f35b6107ca611bd6565b6040518080602001828103825283818151815260200191508051906020019060200280838360005b8381101561080d5780820151818401526020810190506107f2565b505050509050019250505060405180910390f35b610829611d0a565b604051808215151515815260200191505060405180910390f35b61084b611db9565b6040518080602001828103825283818151815260200191508051906020019060200280838360005b8381101561088e578082015181840152602081019050610873565b505050509050019250505060405180910390f35b6108aa611e47565b6040518082815260200191505060405180910390f35b6000600260003373ffffffffffffffffffffffffffffffffffffffff1673ffffffffffffffffffffffffffffffffffffffff16815260200190815260200160002060040160009054906101000a900460ff1615610968576040517f08c379a000000000000000000000000000000000000000000000000000000000815260040180806020018281038252602d815260200180611fe6602d913960400191505060405180910390fd5b6040518060e001604052806000808154809291906001019190505581526020018381526020013373ffffffffffffffffffffffffffffffffffffffff1681526020016040518060400160405280600881526020017f437573746f6d6572000000000000000000000000000000000000000000000000815250815260200160011515815260200160001515815260200160001515815250600260003373ffffffffffffffffffffffffffffffffffffffff1673ffffffffffffffffffffffffffffffffffffffff168152602001908152602001600020600082015181600001556020820151816001019080519060200190610a63929190611ef7565b5060408201518160020160006101000a81548173ffffffffffffffffffffffffffffffffffffffff021916908373ffffffffffffffffffffffffffffffffffffffff1602179055506060820151816003019080519060200190610ac7929190611ef7565b5060808201518160040160006101000a81548160ff02191690831515021790555060a08201518160040160016101000a81548160ff02191690831515021790555060c08201518160040160026101000a81548160ff021916908315150217905550905050600080549050600160043390806001815401808255809150509060018203906000526020600020016000909192909190916101000a81548173ffffffffffffffffffffffffffffffffffffffff021916908373ffffffffffffffffffffffffffffffffffffffff16021790555050507f5d5d81ca0768aad867a6bbc6b659be5eee0b4d514771c2c8abfc1aa638a8eac53384604051808373ffffffffffffffffffffffffffffffffffffffff1673ffffffffffffffffffffffffffffffffffffffff1681526020018060200180602001838103835284818151815260200191508051906020019080838360005b83811015610c33578082015181840152602081019050610c18565b50505050905090810190601f168015610c605780820380516001836020036101000a031916815260200191505b50838103825260088152602001807f437573746f6d657200000000000000000000000000000000000000000000000081525060200194505050505060405180910390a180915050919050565b6060600260008373ffffffffffffffffffffffffffffffffffffffff1673ffffffffffffffffffffffffffffffffffffffff1681526020019081526020016000206003018054600181600116156101000203166002900480601f016020809104026020016040519081016040528092919081815260200182805460018160011615610100020316600290048015610d845780601f10610d5957610100808354040283529160200191610d84565b820191906000526020600020905b815481529060010190602001808311610d6757829003601f168201915b50505050509050919050565b6000600260003373ffffffffffffffffffffffffffffffffffffffff1673ffffffffffffffffffffffffffffffffffffffff16815260200190815260200160002060040160019054906101000a900460ff1615610e38576040517f08c379a000000000000000000000000000000000000000000000000000000000815260040180806020018281038252602b815260200180612013602b913960400191505060405180910390fd5b6001905090565b6000600260003373ffffffffffffffffffffffffffffffffffffffff1673ffffffffffffffffffffffffffffffffffffffff16815260200190815260200160002060040160009054906101000a900460ff1615610ee7576040517f08c379a000000000000000000000000000000000000000000000000000000000815260040180806020018281038252602d815260200180611fe6602d913960400191505060405180910390fd5b6040518060e001604052806000808154809291906001019190505581526020018381526020013373ffffffffffffffffffffffffffffffffffffffff1681526020016040518060400160405280600881526020017f52657461696c6572000000000000000000000000000000000000000000000000815250815260200160011515815260200160001515815260200160011515815250600260003373ffffffffffffffffffffffffffffffffffffffff1673ffffffffffffffffffffffffffffffffffffffff168152602001908152602001600020600082015181600001556020820151816001019080519060200190610fe2929190611ef7565b5060408201518160020160006101000a81548173ffffffffffffffffffffffffffffffffffffffff021916908373ffffffffffffffffffffffffffffffffffffffff1602179055506060820151816003019080519060200190611046929190611ef7565b5060808201518160040160006101000a81548160ff02191690831515021790555060a08201518160040160016101000a81548160ff02191690831515021790555060c08201518160040160026101000a81548160ff021916908315150217905550905050600080549050600160053390806001815401808255809150509060018203906000526020600020016000909192909190916101000a81548173ffffffffffffffffffffffffffffffffffffffff021916908373ffffffffffffffffffffffffffffffffffffffff16021790555050507f5d5d81ca0768aad867a6bbc6b659be5eee0b4d514771c2c8abfc1aa638a8eac53384604051808373ffffffffffffffffffffffffffffffffffffffff1673ffffffffffffffffffffffffffffffffffffffff1681526020018060200180602001838103835284818151815260200191508051906020019080838360005b838110156111b2578082015181840152602081019050611197565b50505050905090810190601f1680156111df5780820380516001836020036101000a031916815260200191505b50838103825260088152602001807f52657461696c657200000000000000000000000000000000000000000000000081525060200194505050505060405180910390a180915050919050565b606060038054806020026020016040519081016040528092919081815260200182805480156112af57602002820191906000526020600020905b8160009054906101000a900473ffffffffffffffffffffffffffffffffffffffff1673ffffffffffffffffffffffffffffffffffffffff1681526020019060010190808311611265575b5050505050905090565b6002602052806000526040600020600091509050806000015490806001018054600181600116156101000203166002900480601f01602080910402602001604051908101604052809291908181526020018280546001816001161561010002031660029004801561136b5780601f106113405761010080835404028352916020019161136b565b820191906000526020600020905b81548152906001019060200180831161134e57829003601f168201915b5050505050908060020160009054906101000a900473ffffffffffffffffffffffffffffffffffffffff1690806003018054600181600116156101000203166002900480601f01602080910402602001604051908101604052809291908181526020018280546001816001161561010002031660029004801561142f5780601f106114045761010080835404028352916020019161142f565b820191906000526020600020905b81548152906001019060200180831161141257829003601f168201915b5050505050908060040160009054906101000a900460ff16908060040160019054906101000a900460ff16908060040160029054906101000a900460ff16905087565b6000600260008373ffffffffffffffffffffffffffffffffffffffff1673ffffffffffffffffffffffffffffffffffffffff16815260200190815260200160002060040160009054906101000a900460ff169050919050565b6000600260003373ffffffffffffffffffffffffffffffffffffffff1673ffffffffffffffffffffffffffffffffffffffff16815260200190815260200160002060040160009054906101000a900460ff1615611573576040517f08c379a000000000000000000000000000000000000000000000000000000000815260040180806020018281038252602d815260200180611fe6602d913960400191505060405180910390fd5b6040518060e001604052806000808154809291906001019190505581526020018381526020013373ffffffffffffffffffffffffffffffffffffffff1681526020016040518060400160405280600c81526020017f4d616e7566616374757265720000000000000000000000000000000000000000815250815260200160011515815260200160011515815260200160001515815250600260003373ffffffffffffffffffffffffffffffffffffffff1673ffffffffffffffffffffffffffffffffffffffff16815260200190815260200160002060008201518160000155602082015181600101908051906020019061166e929190611ef7565b5060408201518160020160006101000a81548173ffffffffffffffffffffffffffffffffffffffff021916908373ffffffffffffffffffffffffffffffffffffffff16021790555060608201518160030190805190602001906116d2929190611ef7565b5060808201518160040160006101000a81548160ff02191690831515021790555060a08201518160040160016101000a81548160ff02191690831515021790555060c08201518160040160026101000a81548160ff021916908315150217905550905050600080549050600160033390806001815401808255809150509060018203906000526020600020016000909192909190916101000a81548173ffffffffffffffffffffffffffffffffffffffff021916908373ffffffffffffffffffffffffffffffffffffffff16021790555050507f5d5d81ca0768aad867a6bbc6b659be5eee0b4d514771c2c8abfc1aa638a8eac53384604051808373ffffffffffffffffffffffffffffffffffffffff1673ffffffffffffffffffffffffffffffffffffffff1681526020018060200180602001838103835284818151815260200191508051906020019080838360005b8381101561183e578082015181840152602081019050611823565b50505050905090810190601f16801561186b5780820380516001836020036101000a031916815260200191505b508381038252600c8152602001807f4d616e756661637475726572000000000000000000000000000000000000000081525060200194505050505060405180910390a180915050919050565b6000606060006060600160009054906101000a900473ffffffffffffffffffffffffffffffffffffffff1673ffffffffffffffffffffffffffffffffffffffff163373ffffffffffffffffffffffffffffffffffffffff1614611965576040517f08c379a0000000000000000000000000000000000000000000000000000000008152600401808060200182810382526021815260200180611fc56021913960400191505060405180910390fd5b600260008673ffffffffffffffffffffffffffffffffffffffff1673ffffffffffffffffffffffffffffffffffffffff16815260200190815260200160002060000154600260008773ffffffffffffffffffffffffffffffffffffffff1673ffffffffffffffffffffffffffffffffffffffff168152602001908152602001600020600101600260008873ffffffffffffffffffffffffffffffffffffffff1673ffffffffffffffffffffffffffffffffffffffff16815260200190815260200160002060020160009054906101000a900473ffffffffffffffffffffffffffffffffffffffff16600260008973ffffffffffffffffffffffffffffffffffffffff1673ffffffffffffffffffffffffffffffffffffffff168152602001908152602001600020600301828054600181600116156101000203166002900480601f016020809104026020016040519081016040528092919081815260200182805460018160011615610100020316600290048015611b245780601f10611af957610100808354040283529160200191611b24565b820191906000526020600020905b815481529060010190602001808311611b0757829003601f168201915b50505050509250808054600181600116156101000203166002900480601f016020809104026020016040519081016040528092919081815260200182805460018160011615610100020316600290048015611bc05780601f10611b9557610100808354040283529160200191611bc0565b820191906000526020600020905b815481529060010190602001808311611ba357829003601f168201915b5050505050905093509350935093509193509193565b6060600160009054906101000a900473ffffffffffffffffffffffffffffffffffffffff1673ffffffffffffffffffffffffffffffffffffffff163373ffffffffffffffffffffffffffffffffffffffff1614611c7e576040517f08c379a0000000000000000000000000000000000000000000000000000000008152600401808060200182810382526021815260200180611fc56021913960400191505060405180910390fd5b6004805480602002602001604051908101604052809291908181526020018280548015611d0057602002820191906000526020600020905b8160009054906101000a900473ffffffffffffffffffffffffffffffffffffffff1673ffffffffffffffffffffffffffffffffffffffff1681526020019060010190808311611cb6575b5050505050905090565b6000600260003373ffffffffffffffffffffffffffffffffffffffff1673ffffffffffffffffffffffffffffffffffffffff16815260200190815260200160002060040160029054906101000a900460ff1615611db2576040517f08c379a0000000000000000000000000000000000000000000000000000000008152600401808060200182810382526028815260200180611f9d6028913960400191505060405180910390fd5b6001905090565b60606005805480602002602001604051908101604052809291908181526020018280548015611e3d57602002820191906000526020600020905b8160009054906101000a900473ffffffffffffffffffffffffffffffffffffffff1673ffffffffffffffffffffffffffffffffffffffff1681526020019060010190808311611df3575b5050505050905090565b6000600160009054906101000a900473ffffffffffffffffffffffffffffffffffffffff1673ffffffffffffffffffffffffffffffffffffffff163373ffffffffffffffffffffffffffffffffffffffff1614611eef576040517f08c379a0000000000000000000000000000000000000000000000000000000008152600401808060200182810382526021815260200180611fc56021913960400191505060405180910390fd5b600054905090565b828054600181600116156101000203166002900490600052602060002090601f016020900481019282601f10611f3857805160ff1916838001178555611f66565b82800160010185558215611f66579182015b82811115611f65578251825591602001919060010190611f4a565b5b509050611f739190611f77565b5090565b611f9991905b80821115611f95576000816000905550600101611f7d565b5090565b9056fe4f6e6c792052657461696c6572206861732061636365737320746f20646f20746869732063616c6c4f6e6c79204f776e65722063616e2043616c6c20746869732066756e6374696f6e596f75206861766520616c72656164792052656769737465726420666f722074686973205573657220547970654f6e6c79204d616e7566616374757265206861732061636365737320746f20646f20746869732063616c6ca165627a7a723058209388c67e8d59f50471579aab56990fcb63f99eec05b9dca4e73350488002272b0029",
  "source": "pragma solidity ^0.5.0;\n\ncontract df_Registration {\n\n    uint internal _u_id =0;\n\n   //Creating Admin only modufier\n   address internal owner;\n    constructor () public{\n    owner = msg.sender;\n    }\n    modifier onlyOwner() {\n        require(msg.sender == owner,\"Only Owner can Call this function\");\n         _;\n    }\n    modifier Registered() {\n        require(!users[msg.sender]._registered,\"You have already Registerd for this User Type\");\n        _;\n    }\n\n    modifier onlyManufacturer() {\n        require(!users[msg.sender]._ismanufacturer,\"Only Manufacture has access to do this call\");\n        _;\n    }\n\n    modifier onlyRetailer() {\n        require(!users[msg.sender]._isretailer,\"Only Retailer has access to do this call\");\n        _;\n    }\n    ///Registering Users\n        struct User {\n        uint   _userID;\n        string _userName;\n        address _address;\n        string _userType;\n        bool _registered;\n        bool _ismanufacturer;\n        bool _isretailer;\n        //bool _customer;\n    }\n    mapping(address => User) public users;\n     address[] private m_Useraccts;\n     address[] private c_Useraccts;\n     address[] private r_Useraccts;\n     event registered(address _address,string _name, string _usertype);\n\n     function registerManufacture(string memory name)public Registered returns(uint){\n            users[msg.sender] = User(_u_id++,name,msg.sender,\"Manufacturer\",true,true,false);\n            uint ret = _u_id;\n        m_Useraccts.push(msg.sender)-1;\n        emit registered(msg.sender,name,\"Manufacturer\");\n        return ret;\n      }\n      function registerRetailer(string memory name)public Registered returns(uint){\n        users[msg.sender] = User(_u_id++,name,msg.sender,\"Retailer\",true,false,true);\n        uint ret = _u_id;\n        r_Useraccts.push(msg.sender)-1;\n        emit registered(msg.sender,name,\"Retailer\");\n        return ret;\n      }\n       function registerCustomer(string memory name)public Registered returns(uint){\n        users[msg.sender] = User(_u_id++,name,msg.sender,\"Customer\",true,false,false);\n        uint ret = _u_id;\n        c_Useraccts.push(msg.sender)-1;\n        emit registered(msg.sender,name,\"Customer\");\n        return ret;\n      }\n      function getRegisteredManufacture()public view returns(address[]memory){\n            return m_Useraccts;\n    }\n   function getRegisteredCustomer()public onlyOwner view returns(address[]memory){\n        return c_Useraccts;\n    }\n    function getRegisteredRetailer()public view returns(address[] memory){\n        return r_Useraccts;\n    }\n    function getRegisteredUser(address _address)public onlyOwner view returns(uint, string memory, address, string memory){\n        return (users[_address]._userID, users[_address]._userName, users[_address]._address,users[_address]._userType);\n    }\n   function countUsers()public onlyOwner view returns (uint){\n        return _u_id;\n    }\n\n    function _onlyManufacturer() external view returns(bool success){\n        require(!users[msg.sender]._ismanufacturer,\"Only Manufacture has access to do this call\");\n        return true;\n    }\n\n    function _onlyRetailer() external view returns(bool success){\n        require(!users[msg.sender]._isretailer,\"Only Retailer has access to do this call\");\n        return true;\n    }\n\n    function _isRegistered(address _address) external view returns(bool success){\n        return users[_address]._registered;\n    }\n\n    function _isUserType(address _address) external view returns(string memory){\n        return users[_address]._userType;\n    }\n   }",
  "sourcePath": "/home/vinayjain/Projects/DiamondFactory/contracts/Registration.sol",
  "compiler": {
    "name": "solc",
    "version": "0.5.8+commit.23d335f2.Emscripten.clang"
  },
  "schemaVersion": "3.0.16",
  "updatedAt": "2019-12-13T13:30:57.872Z",
  "devdoc": {
    "methods": {}
  },
  "userdoc": {
    "methods": {}
  }
}