{
  "contractName": "diamondOperations",
  "abi": [
    {
      "constant": true,
      "inputs": [
        {
          "name": "interfaceId",
          "type": "bytes4"
        }
      ],
      "name": "supportsInterface",
      "outputs": [
        {
          "name": "",
          "type": "bool"
        }
      ],
      "payable": false,
      "stateMutability": "view",
      "type": "function"
    },
    {
      "constant": false,
      "inputs": [
        {
          "name": "_to",
          "type": "address"
        },
        {
          "name": "_diamondPrice",
          "type": "uint256"
        }
      ],
      "name": "transferC",
      "outputs": [],
      "payable": true,
      "stateMutability": "payable",
      "type": "function"
    },
    {
      "constant": true,
      "inputs": [],
      "name": "name",
      "outputs": [
        {
          "name": "",
          "type": "string"
        }
      ],
      "payable": false,
      "stateMutability": "view",
      "type": "function"
    },
    {
      "constant": true,
      "inputs": [
        {
          "name": "tokenId",
          "type": "uint256"
        }
      ],
      "name": "getApproved",
      "outputs": [
        {
          "name": "",
          "type": "address"
        }
      ],
      "payable": false,
      "stateMutability": "view",
      "type": "function"
    },
    {
      "constant": false,
      "inputs": [
        {
          "name": "to",
          "type": "address"
        },
        {
          "name": "tokenId",
          "type": "uint256"
        }
      ],
      "name": "approve",
      "outputs": [],
      "payable": false,
      "stateMutability": "nonpayable",
      "type": "function"
    },
    {
      "constant": true,
      "inputs": [],
      "name": "totalSupply",
      "outputs": [
        {
          "name": "",
          "type": "uint256"
        }
      ],
      "payable": false,
      "stateMutability": "view",
      "type": "function"
    },
    {
      "constant": false,
      "inputs": [
        {
          "name": "from",
          "type": "address"
        },
        {
          "name": "to",
          "type": "address"
        },
        {
          "name": "tokenId",
          "type": "uint256"
        }
      ],
      "name": "transferFrom",
      "outputs": [],
      "payable": false,
      "stateMutability": "nonpayable",
      "type": "function"
    },
    {
      "constant": false,
      "inputs": [
        {
          "name": "_newCEO",
          "type": "address"
        }
      ],
      "name": "setCEO",
      "outputs": [],
      "payable": false,
      "stateMutability": "nonpayable",
      "type": "function"
    },
    {
      "constant": true,
      "inputs": [
        {
          "name": "owner",
          "type": "address"
        },
        {
          "name": "index",
          "type": "uint256"
        }
      ],
      "name": "tokenOfOwnerByIndex",
      "outputs": [
        {
          "name": "",
          "type": "uint256"
        }
      ],
      "payable": false,
      "stateMutability": "view",
      "type": "function"
    },
    {
      "constant": true,
      "inputs": [
        {
          "name": "",
          "type": "uint256"
        }
      ],
      "name": "diamonds",
      "outputs": [
        {
          "name": "gemName",
          "type": "string"
        },
        {
          "name": "gemCountry",
          "type": "string"
        },
        {
          "name": "gemcolor",
          "type": "bytes32"
        },
        {
          "name": "gemclarity",
          "type": "bytes32"
        },
        {
          "name": "gemcut",
          "type": "bytes32"
        },
        {
          "name": "gemcarat",
          "type": "uint256"
        },
        {
          "name": "owner",
          "type": "address"
        },
        {
          "name": "status",
          "type": "string"
        },
        {
          "name": "ethPriceM",
          "type": "uint256"
        },
        {
          "name": "ethPriceR",
          "type": "uint256"
        }
      ],
      "payable": false,
      "stateMutability": "view",
      "type": "function"
    },
    {
      "constant": false,
      "inputs": [],
      "name": "unpause",
      "outputs": [],
      "payable": false,
      "stateMutability": "nonpayable",
      "type": "function"
    },
    {
      "constant": false,
      "inputs": [
        {
          "name": "from",
          "type": "address"
        },
        {
          "name": "to",
          "type": "address"
        },
        {
          "name": "tokenId",
          "type": "uint256"
        }
      ],
      "name": "safeTransferFrom",
      "outputs": [],
      "payable": false,
      "stateMutability": "nonpayable",
      "type": "function"
    },
    {
      "constant": true,
      "inputs": [
        {
          "name": "",
          "type": "address"
        }
      ],
      "name": "admins",
      "outputs": [
        {
          "name": "",
          "type": "bool"
        }
      ],
      "payable": false,
      "stateMutability": "view",
      "type": "function"
    },
    {
      "constant": false,
      "inputs": [
        {
          "name": "_newAdmin",
          "type": "address"
        },
        {
          "name": "isAdmin",
          "type": "bool"
        }
      ],
      "name": "setAdmin",
      "outputs": [],
      "payable": false,
      "stateMutability": "nonpayable",
      "type": "function"
    },
    {
      "constant": true,
      "inputs": [
        {
          "name": "index",
          "type": "uint256"
        }
      ],
      "name": "tokenByIndex",
      "outputs": [
        {
          "name": "",
          "type": "uint256"
        }
      ],
      "payable": false,
      "stateMutability": "view",
      "type": "function"
    },
    {
      "constant": false,
      "inputs": [
        {
          "name": "_to",
          "type": "address"
        },
        {
          "name": "_diamondtoken",
          "type": "uint256"
        }
      ],
      "name": "diamondToken",
      "outputs": [],
      "payable": false,
      "stateMutability": "nonpayable",
      "type": "function"
    },
    {
      "constant": true,
      "inputs": [],
      "name": "paused",
      "outputs": [
        {
          "name": "",
          "type": "bool"
        }
      ],
      "payable": false,
      "stateMutability": "view",
      "type": "function"
    },
    {
      "constant": true,
      "inputs": [
        {
          "name": "tokenId",
          "type": "uint256"
        }
      ],
      "name": "ownerOf",
      "outputs": [
        {
          "name": "",
          "type": "address"
        }
      ],
      "payable": false,
      "stateMutability": "view",
      "type": "function"
    },
    {
      "constant": true,
      "inputs": [
        {
          "name": "owner",
          "type": "address"
        }
      ],
      "name": "balanceOf",
      "outputs": [
        {
          "name": "",
          "type": "uint256"
        }
      ],
      "payable": false,
      "stateMutability": "view",
      "type": "function"
    },
    {
      "constant": false,
      "inputs": [],
      "name": "pause",
      "outputs": [],
      "payable": false,
      "stateMutability": "nonpayable",
      "type": "function"
    },
    {
      "constant": true,
      "inputs": [],
      "name": "symbol",
      "outputs": [
        {
          "name": "",
          "type": "string"
        }
      ],
      "payable": false,
      "stateMutability": "view",
      "type": "function"
    },
    {
      "constant": true,
      "inputs": [],
      "name": "CEO",
      "outputs": [
        {
          "name": "",
          "type": "address"
        }
      ],
      "payable": false,
      "stateMutability": "view",
      "type": "function"
    },
    {
      "constant": false,
      "inputs": [
        {
          "name": "to",
          "type": "address"
        },
        {
          "name": "approved",
          "type": "bool"
        }
      ],
      "name": "setApprovalForAll",
      "outputs": [],
      "payable": false,
      "stateMutability": "nonpayable",
      "type": "function"
    },
    {
      "constant": false,
      "inputs": [
        {
          "name": "from",
          "type": "address"
        },
        {
          "name": "to",
          "type": "address"
        },
        {
          "name": "tokenId",
          "type": "uint256"
        },
        {
          "name": "_data",
          "type": "bytes"
        }
      ],
      "name": "safeTransferFrom",
      "outputs": [],
      "payable": false,
      "stateMutability": "nonpayable",
      "type": "function"
    },
    {
      "constant": true,
      "inputs": [
        {
          "name": "tokenId",
          "type": "uint256"
        }
      ],
      "name": "tokenURI",
      "outputs": [
        {
          "name": "",
          "type": "string"
        }
      ],
      "payable": false,
      "stateMutability": "view",
      "type": "function"
    },
    {
      "constant": true,
      "inputs": [
        {
          "name": "owner",
          "type": "address"
        },
        {
          "name": "operator",
          "type": "address"
        }
      ],
      "name": "isApprovedForAll",
      "outputs": [
        {
          "name": "",
          "type": "bool"
        }
      ],
      "payable": false,
      "stateMutability": "view",
      "type": "function"
    },
    {
      "inputs": [],
      "payable": false,
      "stateMutability": "nonpayable",
      "type": "constructor"
    },
    {
      "anonymous": false,
      "inputs": [
        {
          "indexed": false,
          "name": "_address",
          "type": "address"
        },
        {
          "indexed": false,
          "name": "_diamondID",
          "type": "uint256"
        }
      ],
      "name": "eventcreateDiamond",
      "type": "event"
    },
    {
      "anonymous": false,
      "inputs": [
        {
          "indexed": false,
          "name": "_diamondID",
          "type": "uint256"
        },
        {
          "indexed": false,
          "name": "_seller",
          "type": "address"
        },
        {
          "indexed": false,
          "name": "_buyer",
          "type": "address"
        },
        {
          "indexed": false,
          "name": "_Price",
          "type": "uint256"
        },
        {
          "indexed": false,
          "name": "timestamp",
          "type": "uint256"
        }
      ],
      "name": "TransactionHistory",
      "type": "event"
    },
    {
      "anonymous": false,
      "inputs": [
        {
          "indexed": true,
          "name": "from",
          "type": "address"
        },
        {
          "indexed": true,
          "name": "to",
          "type": "address"
        },
        {
          "indexed": true,
          "name": "tokenId",
          "type": "uint256"
        }
      ],
      "name": "Transfer",
      "type": "event"
    },
    {
      "anonymous": false,
      "inputs": [
        {
          "indexed": true,
          "name": "owner",
          "type": "address"
        },
        {
          "indexed": true,
          "name": "approved",
          "type": "address"
        },
        {
          "indexed": true,
          "name": "tokenId",
          "type": "uint256"
        }
      ],
      "name": "Approval",
      "type": "event"
    },
    {
      "anonymous": false,
      "inputs": [
        {
          "indexed": true,
          "name": "owner",
          "type": "address"
        },
        {
          "indexed": true,
          "name": "operator",
          "type": "address"
        },
        {
          "indexed": false,
          "name": "approved",
          "type": "bool"
        }
      ],
      "name": "ApprovalForAll",
      "type": "event"
    },
    {
      "constant": false,
      "inputs": [
        {
          "name": "_gemName",
          "type": "string"
        },
        {
          "name": "_gemCountry",
          "type": "string"
        },
        {
          "name": "_gemcolor",
          "type": "bytes32"
        },
        {
          "name": "_gemclarity",
          "type": "bytes32"
        },
        {
          "name": "_gemcut",
          "type": "bytes32"
        },
        {
          "name": "_gemcarat",
          "type": "uint256"
        }
      ],
      "name": "createDiamond",
      "outputs": [],
      "payable": false,
      "stateMutability": "nonpayable",
      "type": "function"
    },
    {
      "constant": true,
      "inputs": [
        {
          "name": "_diamondID",
          "type": "uint256"
        }
      ],
      "name": "VerifyDiamond",
      "outputs": [],
      "payable": false,
      "stateMutability": "view",
      "type": "function"
    },
    {
      "constant": true,
      "inputs": [
        {
          "name": "_diamondID",
          "type": "uint256"
        }
      ],
      "name": "_isDiamondVerified",
      "outputs": [
        {
          "name": "",
          "type": "bool"
        }
      ],
      "payable": false,
      "stateMutability": "view",
      "type": "function"
    },
    {
      "constant": true,
      "inputs": [
        {
          "name": "_address",
          "type": "address"
        }
      ],
      "name": "_isManufacturer",
      "outputs": [
        {
          "name": "",
          "type": "bool"
        }
      ],
      "payable": false,
      "stateMutability": "view",
      "type": "function"
    },
    {
      "constant": false,
      "inputs": [
        {
          "name": "_diamondID",
          "type": "uint256"
        },
        {
          "name": "_seller",
          "type": "address"
        }
      ],
      "name": "_BuyfromManufacturer",
      "outputs": [],
      "payable": true,
      "stateMutability": "payable",
      "type": "function"
    },
    {
      "constant": false,
      "inputs": [
        {
          "name": "_diamondID",
          "type": "uint256"
        },
        {
          "name": "_seller",
          "type": "address"
        }
      ],
      "name": "_BuyfromRetailer",
      "outputs": [],
      "payable": true,
      "stateMutability": "payable",
      "type": "function"
    },
    {
      "constant": true,
      "inputs": [
        {
          "name": "_diamondID",
          "type": "uint256"
        }
      ],
      "name": "getDiamond",
      "outputs": [
        {
          "name": "",
          "type": "string"
        },
        {
          "name": "",
          "type": "string"
        },
        {
          "name": "",
          "type": "bytes32"
        },
        {
          "name": "",
          "type": "bytes32"
        },
        {
          "name": "",
          "type": "uint256"
        },
        {
          "name": "",
          "type": "address"
        }
      ],
      "payable": false,
      "stateMutability": "view",
      "type": "function"
    },
    {
      "constant": true,
      "inputs": [
        {
          "name": "_diamondID",
          "type": "uint256"
        }
      ],
      "name": "ownerofToken",
      "outputs": [
        {
          "name": "",
          "type": "address"
        }
      ],
      "payable": false,
      "stateMutability": "view",
      "type": "function"
    }
  ],
  "bytecode": "0x60806040526000600e60006101000a81548160ff0219169083151502179055506002600f5560026010553480156200003657600080fd5b506040518060400160405280600e81526020017f4469616d6f6e64466163746f72790000000000000000000000000000000000008152506040518060400160405280600281526020017f44460000000000000000000000000000000000000000000000000000000000008152508181620000bd6301ffc9a760e01b6200018260201b60201c565b620000d56380ac58cd60e01b6200018260201b60201c565b620000ed63780e9d6360e01b6200018260201b60201c565b8160099080519060200190620001059291906200028b565b5080600a90805190602001906200011e9291906200028b565b5062000137635b5e139f60e01b6200018260201b60201c565b5050505033600c60006101000a81548173ffffffffffffffffffffffffffffffffffffffff021916908373ffffffffffffffffffffffffffffffffffffffff1602179055506200033a565b63ffffffff60e01b817bffffffffffffffffffffffffffffffffffffffffffffffffffffffff191614156200021f576040517f08c379a000000000000000000000000000000000000000000000000000000000815260040180806020018281038252601c8152602001807f4552433136353a20696e76616c696420696e746572666163652069640000000081525060200191505060405180910390fd5b6001600080837bffffffffffffffffffffffffffffffffffffffffffffffffffffffff19167bffffffffffffffffffffffffffffffffffffffffffffffffffffffff1916815260200190815260200160002060006101000a81548160ff02191690831515021790555050565b828054600181600116156101000203166002900490600052602060002090601f016020900481019282601f10620002ce57805160ff1916838001178555620002ff565b82800160010185558215620002ff579182015b82811115620002fe578251825591602001919060010190620002e1565b5b5090506200030e919062000312565b5090565b6200033791905b808211156200033357600081600090555060010162000319565b5090565b90565b6152f8806200034a6000396000f3fe6080604052600436106101f95760003560e01c80635c975abb1161010d5780639960b7e7116100a0578063c87b56dd1161006f578063c87b56dd14610fb8578063dced10d81461106c578063df8e0c30146110bf578063e3ed14db1461113a578063e985e9c5146112a2576101f9565b80639960b7e714610da4578063a108857114610df2578063a22cb46514610e49578063b88d4fde14610ea6576101f9565b8063779dd4e8116100dc578063779dd4e814610c595780638456cb5914610c9457806390a3aeef14610cab57806395d89b4114610d14576101f9565b80635c975abb14610afc5780635ea95eb014610b2b5780636352211e14610b7957806370a0823114610bf4576101f9565b806327d7874c1161019057806342842e0e1161015f57806342842e0e14610911578063429b62e51461098c5780634b0bddd2146109f55780634f6ccce714610a5257806357d2a8fd14610aa1576101f9565b806327d7874c146106515780632f745c59146106a25780633951e09b146107115780633f4ba83a146108fa576101f9565b8063095ea7b3116101cc578063095ea7b3146103c957806314b163f01461042457806318160ddd146105ab57806323b872dd146105d6576101f9565b806301ffc9a7146101fe57806304d245a01461027057806306fdde03146102be578063081812fc1461034e575b600080fd5b34801561020a57600080fd5b506102566004803603602081101561022157600080fd5b8101908080357bffffffffffffffffffffffffffffffffffffffffffffffffffffffff1916906020019092919050505061132b565b604051808215151515815260200191505060405180910390f35b6102bc6004803603604081101561028657600080fd5b81019080803573ffffffffffffffffffffffffffffffffffffffff16906020019092919080359060200190929190505050611392565b005b3480156102ca57600080fd5b506102d36113dd565b6040518080602001828103825283818151815260200191508051906020019080838360005b838110156103135780820151818401526020810190506102f8565b50505050905090810190601f1680156103405780820380516001836020036101000a031916815260200191505b509250505060405180910390f35b34801561035a57600080fd5b506103876004803603602081101561037157600080fd5b810190808035906020019092919050505061147f565b604051808273ffffffffffffffffffffffffffffffffffffffff1673ffffffffffffffffffffffffffffffffffffffff16815260200191505060405180910390f35b3480156103d557600080fd5b50610422600480360360408110156103ec57600080fd5b81019080803573ffffffffffffffffffffffffffffffffffffffff1690602001909291908035906020019092919050505061151a565b005b34801561043057600080fd5b506105a9600480360360c081101561044757600080fd5b810190808035906020019064010000000081111561046457600080fd5b82018360208201111561047657600080fd5b8035906020019184600183028401116401000000008311171561049857600080fd5b91908080601f016020809104026020016040519081016040528093929190818152602001838380828437600081840152601f19601f820116905080830192505050505050509192919290803590602001906401000000008111156104fb57600080fd5b82018360208201111561050d57600080fd5b8035906020019184600183028401116401000000008311171561052f57600080fd5b91908080601f016020809104026020016040519081016040528093929190818152602001838380828437600081840152601f19601f82011690508083019250505050505050919291929080359060200190929190803590602001909291908035906020019092919080359060200190929190505050611701565b005b3480156105b757600080fd5b506105c0611c61565b6040518082815260200191505060405180910390f35b3480156105e257600080fd5b5061064f600480360360608110156105f957600080fd5b81019080803573ffffffffffffffffffffffffffffffffffffffff169060200190929190803573ffffffffffffffffffffffffffffffffffffffff16906020019092919080359060200190929190505050611c6e565b005b34801561065d57600080fd5b506106a06004803603602081101561067457600080fd5b81019080803573ffffffffffffffffffffffffffffffffffffffff169060200190929190505050611ce4565b005b3480156106ae57600080fd5b506106fb600480360360408110156106c557600080fd5b81019080803573ffffffffffffffffffffffffffffffffffffffff16906020019092919080359060200190929190505050611e71565b6040518082815260200191505060405180910390f35b34801561071d57600080fd5b5061074a6004803603602081101561073457600080fd5b8101908080359060200190929190505050611f30565b6040518080602001806020018b81526020018a81526020018981526020018881526020018773ffffffffffffffffffffffffffffffffffffffff1673ffffffffffffffffffffffffffffffffffffffff1681526020018060200186815260200185815260200184810384528e818151815260200191508051906020019080838360005b838110156107e85780820151818401526020810190506107cd565b50505050905090810190601f1680156108155780820380516001836020036101000a031916815260200191505b5084810383528d818151815260200191508051906020019080838360005b8381101561084e578082015181840152602081019050610833565b50505050905090810190601f16801561087b5780820380516001836020036101000a031916815260200191505b50848103825287818151815260200191508051906020019080838360005b838110156108b4578082015181840152602081019050610899565b50505050905090810190601f1680156108e15780820380516001836020036101000a031916815260200191505b509d505050505050505050505050505060405180910390f35b34801561090657600080fd5b5061090f612179565b005b34801561091d57600080fd5b5061098a6004803603606081101561093457600080fd5b81019080803573ffffffffffffffffffffffffffffffffffffffff169060200190929190803573ffffffffffffffffffffffffffffffffffffffff169060200190929190803590602001909291905050506122db565b005b34801561099857600080fd5b506109db600480360360208110156109af57600080fd5b81019080803573ffffffffffffffffffffffffffffffffffffffff1690602001909291905050506122fb565b604051808215151515815260200191505060405180910390f35b348015610a0157600080fd5b50610a5060048036036040811015610a1857600080fd5b81019080803573ffffffffffffffffffffffffffffffffffffffff16906020019092919080351515906020019092919050505061231b565b005b348015610a5e57600080fd5b50610a8b60048036036020811015610a7557600080fd5b81019080803590602001909291905050506124bf565b6040518082815260200191505060405180910390f35b348015610aad57600080fd5b50610afa60048036036040811015610ac457600080fd5b81019080803573ffffffffffffffffffffffffffffffffffffffff1690602001909291908035906020019092919050505061253f565b005b348015610b0857600080fd5b50610b1161254d565b604051808215151515815260200191505060405180910390f35b610b7760048036036040811015610b4157600080fd5b8101908080359060200190929190803573ffffffffffffffffffffffffffffffffffffffff169060200190929190505050612560565b005b348015610b8557600080fd5b50610bb260048036036020811015610b9c57600080fd5b81019080803590602001909291905050506128a5565b604051808273ffffffffffffffffffffffffffffffffffffffff1673ffffffffffffffffffffffffffffffffffffffff16815260200191505060405180910390f35b348015610c0057600080fd5b50610c4360048036036020811015610c1757600080fd5b81019080803573ffffffffffffffffffffffffffffffffffffffff16906020019092919050505061296d565b6040518082815260200191505060405180910390f35b348015610c6557600080fd5b50610c9260048036036020811015610c7c57600080fd5b8101908080359060200190929190505050612a42565b005b348015610ca057600080fd5b50610ca9612f63565b005b348015610cb757600080fd5b50610cfa60048036036020811015610cce57600080fd5b81019080803573ffffffffffffffffffffffffffffffffffffffff1690602001909291905050506130fd565b604051808215151515815260200191505060405180910390f35b348015610d2057600080fd5b50610d2961330e565b6040518080602001828103825283818151815260200191508051906020019080838360005b83811015610d69578082015181840152602081019050610d4e565b50505050905090810190601f168015610d965780820380516001836020036101000a031916815260200191505b509250505060405180910390f35b610df060048036036040811015610dba57600080fd5b8101908080359060200190929190803573ffffffffffffffffffffffffffffffffffffffff1690602001909291905050506133b0565b005b348015610dfe57600080fd5b50610e076136f5565b604051808273ffffffffffffffffffffffffffffffffffffffff1673ffffffffffffffffffffffffffffffffffffffff16815260200191505060405180910390f35b348015610e5557600080fd5b50610ea460048036036040811015610e6c57600080fd5b81019080803573ffffffffffffffffffffffffffffffffffffffff16906020019092919080351515906020019092919050505061371b565b005b348015610eb257600080fd5b50610fb660048036036080811015610ec957600080fd5b81019080803573ffffffffffffffffffffffffffffffffffffffff169060200190929190803573ffffffffffffffffffffffffffffffffffffffff1690602001909291908035906020019092919080359060200190640100000000811115610f3057600080fd5b820183602082011115610f4257600080fd5b80359060200191846001830284011164010000000083111715610f6457600080fd5b91908080601f016020809104026020016040519081016040528093929190818152602001838380828437600081840152601f19601f8201169050808301925050505050505091929192905050506138d3565b005b348015610fc457600080fd5b50610ff160048036036020811015610fdb57600080fd5b810190808035906020019092919050505061394b565b6040518080602001828103825283818151815260200191508051906020019080838360005b83811015611031578082015181840152602081019050611016565b50505050905090810190601f16801561105e5780820380516001836020036101000a031916815260200191505b509250505060405180910390f35b34801561107857600080fd5b506110a56004803603602081101561108f57600080fd5b8101908080359060200190929190505050613a5e565b604051808215151515815260200191505060405180910390f35b3480156110cb57600080fd5b506110f8600480360360208110156110e257600080fd5b8101908080359060200190929190505050613c31565b604051808273ffffffffffffffffffffffffffffffffffffffff1673ffffffffffffffffffffffffffffffffffffffff16815260200191505060405180910390f35b34801561114657600080fd5b506111736004803603602081101561115d57600080fd5b8101908080359060200190929190505050613cd6565b6040518080602001806020018781526020018681526020018581526020018473ffffffffffffffffffffffffffffffffffffffff1673ffffffffffffffffffffffffffffffffffffffff168152602001838103835289818151815260200191508051906020019080838360005b838110156111fb5780820151818401526020810190506111e0565b50505050905090810190601f1680156112285780820380516001836020036101000a031916815260200191505b50838103825288818151815260200191508051906020019080838360005b83811015611261578082015181840152602081019050611246565b50505050905090810190601f16801561128e5780820380516001836020036101000a031916815260200191505b509850505050505050505060405180910390f35b3480156112ae57600080fd5b50611311600480360360408110156112c557600080fd5b81019080803573ffffffffffffffffffffffffffffffffffffffff169060200190929190803573ffffffffffffffffffffffffffffffffffffffff169060200190929190505050613e80565b604051808215151515815260200191505060405180910390f35b6000806000837bffffffffffffffffffffffffffffffffffffffffffffffffffffffff19167bffffffffffffffffffffffffffffffffffffffffffffffffffffffff1916815260200190815260200160002060009054906101000a900460ff169050919050565b8173ffffffffffffffffffffffffffffffffffffffff166108fc829081150290604051600060405180830381858888f193505050501580156113d8573d6000803e3d6000fd5b505050565b606060098054600181600116156101000203166002900480601f0160208091040260200160405190810160405280929190818152602001828054600181600116156101000203166002900480156114755780601f1061144a57610100808354040283529160200191611475565b820191906000526020600020905b81548152906001019060200180831161145857829003601f168201915b5050505050905090565b600061148a82613f14565b6114df576040517f08c379a000000000000000000000000000000000000000000000000000000000815260040180806020018281038252602c8152602001806151a8602c913960400191505060405180910390fd5b6002600083815260200190815260200160002060009054906101000a900473ffffffffffffffffffffffffffffffffffffffff169050919050565b6000611525826128a5565b90508073ffffffffffffffffffffffffffffffffffffffff168373ffffffffffffffffffffffffffffffffffffffff1614156115ac576040517f08c379a000000000000000000000000000000000000000000000000000000000815260040180806020018281038252602181526020018061524f6021913960400191505060405180910390fd5b8073ffffffffffffffffffffffffffffffffffffffff166115cb613f86565b73ffffffffffffffffffffffffffffffffffffffff1614806115fa57506115f9816115f4613f86565b613e80565b5b61164f576040517f08c379a00000000000000000000000000000000000000000000000000000000081526004018080602001828103825260388152602001806150ef6038913960400191505060405180910390fd5b826002600084815260200190815260200160002060006101000a81548173ffffffffffffffffffffffffffffffffffffffff021916908373ffffffffffffffffffffffffffffffffffffffff160217905550818373ffffffffffffffffffffffffffffffffffffffff168273ffffffffffffffffffffffffffffffffffffffff167f8c5be1e5ebec7d5bd14f71427d1e84f3dd0314c0f7b2291e5b200ac8c7c3b92560405160405180910390a4505050565b600e60009054906101000a900460ff1615611767576040517f08c379a000000000000000000000000000000000000000000000000000000000815260040180806020018281038252602a815260200180615018602a913960400191505060405180910390fd5b601160009054906101000a900473ffffffffffffffffffffffffffffffffffffffff1673ffffffffffffffffffffffffffffffffffffffff16634cdb1b4b6040518163ffffffff1660e01b815260040160206040518083038186803b1580156117cf57600080fd5b505afa1580156117e3573d6000803e3d6000fd5b505050506040513d60208110156117f957600080fd5b810190808051906020019092919050505061185f576040517f08c379a000000000000000000000000000000000000000000000000000000000815260040180806020018281038252602381526020018061522c6023913960400191505060405180910390fd5b611867614ed4565b6040518061014001604052808881526020018781526020018681526020018581526020018481526020018381526020013373ffffffffffffffffffffffffffffffffffffffff1681526020016040518060400160405280600781526020017f50656e64696e67000000000000000000000000000000000000000000000000008152508152602001600081526020016000815250905060006014829080600181540180825580915050906001820390600052602060002090600a0201600090919290919091506000820151816000019080519060200190611948929190614f46565b506020820151816001019080519060200190611965929190614f46565b5060408201518160020155606082015181600301556080820151816004015560a0820151816005015560c08201518160060160006101000a81548173ffffffffffffffffffffffffffffffffffffffff021916908373ffffffffffffffffffffffffffffffffffffffff16021790555060e08201518160070190805190602001906119f1929190614f46565b506101008201518160080155610120820151816009015550509050601360009054906101000a900473ffffffffffffffffffffffffffffffffffffffff1673ffffffffffffffffffffffffffffffffffffffff166357d2a8fd33836040518363ffffffff1660e01b8152600401808373ffffffffffffffffffffffffffffffffffffffff1673ffffffffffffffffffffffffffffffffffffffff16815260200182815260200192505050600060405180830381600087803b158015611ab557600080fd5b505af1158015611ac9573d6000803e3d6000fd5b5050505060016016600083815260200190815260200160002060006101000a81548160ff02191690831515021790555081601960008381526020019081526020016000206000820151816000019080519060200190611b29929190614f46565b506020820151816001019080519060200190611b46929190614f46565b5060408201518160020155606082015181600301556080820151816004015560a0820151816005015560c08201518160060160006101000a81548173ffffffffffffffffffffffffffffffffffffffff021916908373ffffffffffffffffffffffffffffffffffffffff16021790555060e0820151816007019080519060200190611bd2929190614f46565b50610100820151816008015561012082015181600901559050507f813ab5c3276dfab34b7d11cdb3be47ba7a99c98805b61a6fca388e03c1ff79243382604051808373ffffffffffffffffffffffffffffffffffffffff1673ffffffffffffffffffffffffffffffffffffffff1681526020018281526020019250505060405180910390a15050505050505050565b6000600780549050905090565b611c7f611c79613f86565b82613f8e565b611cd4576040517f08c379a00000000000000000000000000000000000000000000000000000000081526004018080602001828103825260318152602001806152706031913960400191505060405180910390fd5b611cdf838383614082565b505050565b600c60009054906101000a900473ffffffffffffffffffffffffffffffffffffffff1673ffffffffffffffffffffffffffffffffffffffff163373ffffffffffffffffffffffffffffffffffffffff1614611da7576040517f08c379a00000000000000000000000000000000000000000000000000000000081526004018080602001828103825260178152602001807f41636365737320746f204446202d2043454f206f6e6c7900000000000000000081525060200191505060405180910390fd5b600073ffffffffffffffffffffffffffffffffffffffff168173ffffffffffffffffffffffffffffffffffffffff161415611e2d576040517f08c379a000000000000000000000000000000000000000000000000000000000815260040180806020018281038252602e81526020018061517a602e913960400191505060405180910390fd5b80600c60006101000a81548173ffffffffffffffffffffffffffffffffffffffff021916908373ffffffffffffffffffffffffffffffffffffffff16021790555050565b6000611e7c8361296d565b8210611ed3576040517f08c379a000000000000000000000000000000000000000000000000000000000815260040180806020018281038252602b815260200180615042602b913960400191505060405180910390fd5b600560008473ffffffffffffffffffffffffffffffffffffffff1673ffffffffffffffffffffffffffffffffffffffff1681526020019081526020016000208281548110611f1d57fe5b9060005260206000200154905092915050565b60148181548110611f3d57fe5b90600052602060002090600a0201600091509050806000018054600181600116156101000203166002900480601f016020809104026020016040519081016040528092919081815260200182805460018160011615610100020316600290048015611fe95780601f10611fbe57610100808354040283529160200191611fe9565b820191906000526020600020905b815481529060010190602001808311611fcc57829003601f168201915b505050505090806001018054600181600116156101000203166002900480601f0160208091040260200160405190810160405280929190818152602001828054600181600116156101000203166002900480156120875780601f1061205c57610100808354040283529160200191612087565b820191906000526020600020905b81548152906001019060200180831161206a57829003601f168201915b5050505050908060020154908060030154908060040154908060050154908060060160009054906101000a900473ffffffffffffffffffffffffffffffffffffffff1690806007018054600181600116156101000203166002900480601f0160208091040260200160405190810160405280929190818152602001828054600181600116156101000203166002900480156121635780601f1061213857610100808354040283529160200191612163565b820191906000526020600020905b81548152906001019060200180831161214657829003601f168201915b505050505090806008015490806009015490508a565b600c60009054906101000a900473ffffffffffffffffffffffffffffffffffffffff1673ffffffffffffffffffffffffffffffffffffffff163373ffffffffffffffffffffffffffffffffffffffff161461223c576040517f08c379a00000000000000000000000000000000000000000000000000000000081526004018080602001828103825260178152602001807f41636365737320746f204446202d2043454f206f6e6c7900000000000000000081525060200191505060405180910390fd5b600e60009054906101000a900460ff166122be576040517f08c379a00000000000000000000000000000000000000000000000000000000081526004018080602001828103825260128152602001807f436f6e747261637420697320706175736564000000000000000000000000000081525060200191505060405180910390fd5b6000600e60006101000a81548160ff021916908315150217905550565b6122f6838383604051806020016040528060008152506138d3565b505050565b600d6020528060005260406000206000915054906101000a900460ff1681565b600c60009054906101000a900473ffffffffffffffffffffffffffffffffffffffff1673ffffffffffffffffffffffffffffffffffffffff163373ffffffffffffffffffffffffffffffffffffffff16146123de576040517f08c379a00000000000000000000000000000000000000000000000000000000081526004018080602001828103825260178152602001807f41636365737320746f204446202d2043454f206f6e6c7900000000000000000081525060200191505060405180910390fd5b600073ffffffffffffffffffffffffffffffffffffffff168273ffffffffffffffffffffffffffffffffffffffff161415612464576040517f08c379a000000000000000000000000000000000000000000000000000000000815260040180806020018281038252602e81526020018061517a602e913960400191505060405180910390fd5b80600d60008473ffffffffffffffffffffffffffffffffffffffff1673ffffffffffffffffffffffffffffffffffffffff16815260200190815260200160002060006101000a81548160ff0219169083151502179055505050565b60006124c9611c61565b8210612520576040517f08c379a000000000000000000000000000000000000000000000000000000000815260040180806020018281038252602c8152602001806152a1602c913960400191505060405180910390fd5b6007828154811061252d57fe5b90600052602060002001549050919050565b61254982826140a6565b5050565b600e60009054906101000a900460ff1681565b600e60009054906101000a900460ff16156125c6576040517f08c379a000000000000000000000000000000000000000000000000000000000815260040180806020018281038252602a815260200180615018602a913960400191505060405180910390fd5b6125cf82613a5e565b612641576040517f08c379a00000000000000000000000000000000000000000000000000000000081526004018080602001828103825260178152602001807f4469616d6f6e64206973206e6f7420766572696669656400000000000000000081525060200191505060405180910390fd5b61264a816140c7565b6126bc576040517f08c379a00000000000000000000000000000000000000000000000000000000081526004018080602001828103825260168152602001807f53656c6c6572206973206e6f742052657461696c65720000000000000000000081525060200191505060405180910390fd5b6000601960008481526020019081526020016000209050338160060160006101000a81548173ffffffffffffffffffffffffffffffffffffffff021916908373ffffffffffffffffffffffffffffffffffffffff1602179055508060080154601581905550601360009054906101000a900473ffffffffffffffffffffffffffffffffffffffff1673ffffffffffffffffffffffffffffffffffffffff166304d245a0836015546040518363ffffffff1660e01b8152600401808373ffffffffffffffffffffffffffffffffffffffff1673ffffffffffffffffffffffffffffffffffffffff16815260200182815260200192505050600060405180830381600087803b1580156127cc57600080fd5b505af11580156127e0573d6000803e3d6000fd5b505050506127ef823385614082565b7fd3118335312cd2747ce69f91d0a5da5843378662c4f0f5ca930ab305ba3bebbb83833360155442604051808681526020018573ffffffffffffffffffffffffffffffffffffffff1673ffffffffffffffffffffffffffffffffffffffff1681526020018473ffffffffffffffffffffffffffffffffffffffff1673ffffffffffffffffffffffffffffffffffffffff1681526020018381526020018281526020019550505050505060405180910390a1505050565b6000806001600084815260200190815260200160002060009054906101000a900473ffffffffffffffffffffffffffffffffffffffff169050600073ffffffffffffffffffffffffffffffffffffffff168173ffffffffffffffffffffffffffffffffffffffff161415612964576040517f08c379a00000000000000000000000000000000000000000000000000000000081526004018080602001828103825260298152602001806151516029913960400191505060405180910390fd5b80915050919050565b60008073ffffffffffffffffffffffffffffffffffffffff168273ffffffffffffffffffffffffffffffffffffffff1614156129f4576040517f08c379a000000000000000000000000000000000000000000000000000000000815260040180806020018281038252602a815260200180615127602a913960400191505060405180910390fd5b612a3b600360008473ffffffffffffffffffffffffffffffffffffffff1673ffffffffffffffffffffffffffffffffffffffff1681526020019081526020016000206142d8565b9050919050565b600d60003373ffffffffffffffffffffffffffffffffffffffff1673ffffffffffffffffffffffffffffffffffffffff16815260200190815260200160002060009054906101000a900460ff1680612ae75750600c60009054906101000a900473ffffffffffffffffffffffffffffffffffffffff1673ffffffffffffffffffffffffffffffffffffffff163373ffffffffffffffffffffffffffffffffffffffff16145b612b59576040517f08c379a000000000000000000000000000000000000000000000000000000000815260040180806020018281038252601c8152602001807f41636365737320746f206f6e6c792041646d696e73206f722043454f0000000081525060200191505060405180910390fd5b600e60009054906101000a900460ff1615612bbf576040517f08c379a000000000000000000000000000000000000000000000000000000000815260040180806020018281038252602a815260200180615018602a913960400191505060405180910390fd5b6016600082815260200190815260200160002060009054906101000a900460ff16612c52576040517f08c379a00000000000000000000000000000000000000000000000000000000081526004018080602001828103825260138152602001807f4469616d6f6e64204e6f7420437265617465640000000000000000000000000081525060200191505060405180910390fd5b612c5a614ed4565b6019600083815260200190815260200160002060405180610140016040529081600082018054600181600116156101000203166002900480601f016020809104026020016040519081016040528092919081815260200182805460018160011615610100020316600290048015612d125780601f10612ce757610100808354040283529160200191612d12565b820191906000526020600020905b815481529060010190602001808311612cf557829003601f168201915b50505050508152602001600182018054600181600116156101000203166002900480601f016020809104026020016040519081016040528092919081815260200182805460018160011615610100020316600290048015612db45780601f10612d8957610100808354040283529160200191612db4565b820191906000526020600020905b815481529060010190602001808311612d9757829003601f168201915b50505050508152602001600282015481526020016003820154815260200160048201548152602001600582015481526020016006820160009054906101000a900473ffffffffffffffffffffffffffffffffffffffff1673ffffffffffffffffffffffffffffffffffffffff1673ffffffffffffffffffffffffffffffffffffffff168152602001600782018054600181600116156101000203166002900480601f016020809104026020016040519081016040528092919081815260200182805460018160011615610100020316600290048015612ed45780601f10612ea957610100808354040283529160200191612ed4565b820191906000526020600020905b815481529060010190602001808311612eb757829003601f168201915b505050505081526020016008820154815260200160098201548152505090506040518060400160405280600881526020017f56657269666965640000000000000000000000000000000000000000000000008152508160e00181905250612f3e8160a001516142e6565b81610100018181525050612f558160a001516142f4565b816101200181815250505050565b600d60003373ffffffffffffffffffffffffffffffffffffffff1673ffffffffffffffffffffffffffffffffffffffff16815260200190815260200160002060009054906101000a900460ff16806130085750600c60009054906101000a900473ffffffffffffffffffffffffffffffffffffffff1673ffffffffffffffffffffffffffffffffffffffff163373ffffffffffffffffffffffffffffffffffffffff16145b61307a576040517f08c379a000000000000000000000000000000000000000000000000000000000815260040180806020018281038252601c8152602001807f41636365737320746f206f6e6c792041646d696e73206f722043454f0000000081525060200191505060405180910390fd5b600e60009054906101000a900460ff16156130e0576040517f08c379a000000000000000000000000000000000000000000000000000000000815260040180806020018281038252602a815260200180615018602a913960400191505060405180910390fd5b6001600e60006101000a81548160ff021916908315150217905550565b6000601160009054906101000a900473ffffffffffffffffffffffffffffffffffffffff1673ffffffffffffffffffffffffffffffffffffffff1663b4e3fa39836040518263ffffffff1660e01b8152600401808273ffffffffffffffffffffffffffffffffffffffff1673ffffffffffffffffffffffffffffffffffffffff16815260200191505060206040518083038186803b15801561319e57600080fd5b505afa1580156131b2573d6000803e3d6000fd5b505050506040513d60208110156131c857600080fd5b810190808051906020019092919050505061324b576040517f08c379a00000000000000000000000000000000000000000000000000000000081526004018080602001828103825260138152602001807f55736572204e6f7420726567697374657265640000000000000000000000000081525060200191505060405180910390fd5b60405160200180807f4d616e7566616374757265720000000000000000000000000000000000000000815250600c01905060405160208183030381529060405280519060200120601160009054906101000a900473ffffffffffffffffffffffffffffffffffffffff1673ffffffffffffffffffffffffffffffffffffffff16632467017760405160200180838363ffffffff169060201b1760401b81526018019250505060405160208183030381529060405280519060200120149050919050565b6060600a8054600181600116156101000203166002900480601f0160208091040260200160405190810160405280929190818152602001828054600181600116156101000203166002900480156133a65780601f1061337b576101008083540402835291602001916133a6565b820191906000526020600020905b81548152906001019060200180831161338957829003601f168201915b5050505050905090565b600e60009054906101000a900460ff1615613416576040517f08c379a000000000000000000000000000000000000000000000000000000000815260040180806020018281038252602a815260200180615018602a913960400191505060405180910390fd5b61341f82613a5e565b613491576040517f08c379a00000000000000000000000000000000000000000000000000000000081526004018080602001828103825260178152602001807f4469616d6f6e64206973206e6f7420766572696669656400000000000000000081525060200191505060405180910390fd5b61349a816130fd565b61350c576040517f08c379a000000000000000000000000000000000000000000000000000000000815260040180806020018281038252601a8152602001807f53656c6c6572206973206e6f74206d616e75666163747572657200000000000081525060200191505060405180910390fd5b6000601960008481526020019081526020016000209050338160060160006101000a81548173ffffffffffffffffffffffffffffffffffffffff021916908373ffffffffffffffffffffffffffffffffffffffff1602179055508060080154601581905550601360009054906101000a900473ffffffffffffffffffffffffffffffffffffffff1673ffffffffffffffffffffffffffffffffffffffff166304d245a0836015546040518363ffffffff1660e01b8152600401808373ffffffffffffffffffffffffffffffffffffffff1673ffffffffffffffffffffffffffffffffffffffff16815260200182815260200192505050600060405180830381600087803b15801561361c57600080fd5b505af1158015613630573d6000803e3d6000fd5b5050505061363f823385614082565b7fd3118335312cd2747ce69f91d0a5da5843378662c4f0f5ca930ab305ba3bebbb83833360155442604051808681526020018573ffffffffffffffffffffffffffffffffffffffff1673ffffffffffffffffffffffffffffffffffffffff1681526020018473ffffffffffffffffffffffffffffffffffffffff1673ffffffffffffffffffffffffffffffffffffffff1681526020018381526020018281526020019550505050505060405180910390a1505050565b600c60009054906101000a900473ffffffffffffffffffffffffffffffffffffffff1681565b613723613f86565b73ffffffffffffffffffffffffffffffffffffffff168273ffffffffffffffffffffffffffffffffffffffff1614156137c4576040517f08c379a00000000000000000000000000000000000000000000000000000000081526004018080602001828103825260198152602001807f4552433732313a20617070726f766520746f2063616c6c65720000000000000081525060200191505060405180910390fd5b80600460006137d1613f86565b73ffffffffffffffffffffffffffffffffffffffff1673ffffffffffffffffffffffffffffffffffffffff16815260200190815260200160002060008473ffffffffffffffffffffffffffffffffffffffff1673ffffffffffffffffffffffffffffffffffffffff16815260200190815260200160002060006101000a81548160ff0219169083151502179055508173ffffffffffffffffffffffffffffffffffffffff1661387e613f86565b73ffffffffffffffffffffffffffffffffffffffff167f17307eab39ab6107e8899845ad3d59bd9653f200f220920489ca2b5937696c3183604051808215151515815260200191505060405180910390a35050565b6138e46138de613f86565b83613f8e565b613939576040517f08c379a00000000000000000000000000000000000000000000000000000000081526004018080602001828103825260318152602001806152706031913960400191505060405180910390fd5b61394584848484614302565b50505050565b606061395682613f14565b6139ab576040517f08c379a000000000000000000000000000000000000000000000000000000000815260040180806020018281038252602f8152602001806151fd602f913960400191505060405180910390fd5b600b60008381526020019081526020016000208054600181600116156101000203166002900480601f016020809104026020016040519081016040528092919081815260200182805460018160011615610100020316600290048015613a525780601f10613a2757610100808354040283529160200191613a52565b820191906000526020600020905b815481529060010190602001808311613a3557829003601f168201915b50505050509050919050565b60006016600083815260200190815260200160002060009054906101000a900460ff16613af3576040517f08c379a00000000000000000000000000000000000000000000000000000000081526004018080602001828103825260138152602001807f4469616d6f6e64206e6f7420637265617465640000000000000000000000000081525060200191505060405180910390fd5b6040518060400160405280600881526020017f56657269666965640000000000000000000000000000000000000000000000008152506040516020018082805190602001908083835b60208310613b5f5780518252602082019150602081019050602083039250613b3c565b6001836020036101000a03801982511681845116808217855250505050505090500191505060405160208183030381529060405280519060200120601960008481526020019081526020016000206007016040516020018082805460018160011615610100020316600290048015613c0e5780601f10613bec576101008083540402835291820191613c0e565b820191906000526020600020905b815481529060010190602001808311613bfa575b505091505060405160208183030381529060405280519060200120149050919050565b60006016600083815260200190815260200160002060009054906101000a900460ff16613cc6576040517f08c379a00000000000000000000000000000000000000000000000000000000081526004018080602001828103825260168152602001807f4469616d6f6e64206973206e6f7420637265617465640000000000000000000081525060200191505060405180910390fd5b613ccf826128a5565b9050919050565b606080600080600080600060196000898152602001908152602001600020905080600001816001018260030154836004015484600501548560060160009054906101000a900473ffffffffffffffffffffffffffffffffffffffff16858054600181600116156101000203166002900480601f016020809104026020016040519081016040528092919081815260200182805460018160011615610100020316600290048015613dc75780601f10613d9c57610100808354040283529160200191613dc7565b820191906000526020600020905b815481529060010190602001808311613daa57829003601f168201915b50505050509550848054600181600116156101000203166002900480601f016020809104026020016040519081016040528092919081815260200182805460018160011615610100020316600290048015613e635780601f10613e3857610100808354040283529160200191613e63565b820191906000526020600020905b815481529060010190602001808311613e4657829003601f168201915b505050505094509650965096509650965096505091939550919395565b6000600460008473ffffffffffffffffffffffffffffffffffffffff1673ffffffffffffffffffffffffffffffffffffffff16815260200190815260200160002060008373ffffffffffffffffffffffffffffffffffffffff1673ffffffffffffffffffffffffffffffffffffffff16815260200190815260200160002060009054906101000a900460ff16905092915050565b6000806001600084815260200190815260200160002060009054906101000a900473ffffffffffffffffffffffffffffffffffffffff169050600073ffffffffffffffffffffffffffffffffffffffff168173ffffffffffffffffffffffffffffffffffffffff161415915050919050565b600033905090565b6000613f9982613f14565b613fee576040517f08c379a000000000000000000000000000000000000000000000000000000000815260040180806020018281038252602c8152602001806150c3602c913960400191505060405180910390fd5b6000613ff9836128a5565b90508073ffffffffffffffffffffffffffffffffffffffff168473ffffffffffffffffffffffffffffffffffffffff16148061406857508373ffffffffffffffffffffffffffffffffffffffff166140508461147f565b73ffffffffffffffffffffffffffffffffffffffff16145b8061407957506140788185613e80565b5b91505092915050565b61408d838383614374565b61409783826145cf565b6140a1828261476d565b505050565b6140b08282614834565b6140ba828261476d565b6140c381614a4c565b5050565b6000601160009054906101000a900473ffffffffffffffffffffffffffffffffffffffff1673ffffffffffffffffffffffffffffffffffffffff1663b4e3fa39836040518263ffffffff1660e01b8152600401808273ffffffffffffffffffffffffffffffffffffffff1673ffffffffffffffffffffffffffffffffffffffff16815260200191505060206040518083038186803b15801561416857600080fd5b505afa15801561417c573d6000803e3d6000fd5b505050506040513d602081101561419257600080fd5b8101908080519060200190929190505050614215576040517f08c379a00000000000000000000000000000000000000000000000000000000081526004018080602001828103825260138152602001807f55736572204e6f7420726567697374657265640000000000000000000000000081525060200191505060405180910390fd5b60405160200180807f52657461696c6572000000000000000000000000000000000000000000000000815250600801905060405160208183030381529060405280519060200120601160009054906101000a900473ffffffffffffffffffffffffffffffffffffffff1673ffffffffffffffffffffffffffffffffffffffff16632467017760405160200180838363ffffffff169060201b1760401b81526018019250505060405160208183030381529060405280519060200120149050919050565b600081600001549050919050565b600081600f54029050919050565b600081601054029050919050565b61430d848484614082565b61431984848484614a98565b61436e576040517f08c379a000000000000000000000000000000000000000000000000000000000815260040180806020018281038252603281526020018061506d6032913960400191505060405180910390fd5b50505050565b8273ffffffffffffffffffffffffffffffffffffffff16614394826128a5565b73ffffffffffffffffffffffffffffffffffffffff1614614400576040517f08c379a00000000000000000000000000000000000000000000000000000000081526004018080602001828103825260298152602001806151d46029913960400191505060405180910390fd5b600073ffffffffffffffffffffffffffffffffffffffff168273ffffffffffffffffffffffffffffffffffffffff161415614486576040517f08c379a000000000000000000000000000000000000000000000000000000000815260040180806020018281038252602481526020018061509f6024913960400191505060405180910390fd5b61448f81614c88565b6144d6600360008573ffffffffffffffffffffffffffffffffffffffff1673ffffffffffffffffffffffffffffffffffffffff168152602001908152602001600020614d46565b61451d600360008473ffffffffffffffffffffffffffffffffffffffff1673ffffffffffffffffffffffffffffffffffffffff168152602001908152602001600020614d69565b816001600083815260200190815260200160002060006101000a81548173ffffffffffffffffffffffffffffffffffffffff021916908373ffffffffffffffffffffffffffffffffffffffff160217905550808273ffffffffffffffffffffffffffffffffffffffff168473ffffffffffffffffffffffffffffffffffffffff167fddf252ad1be2c89b69c2b068fc378daa952ba7f163c4a11628f55a4df523b3ef60405160405180910390a4505050565b60006146276001600560008673ffffffffffffffffffffffffffffffffffffffff1673ffffffffffffffffffffffffffffffffffffffff16815260200190815260200160002080549050614d7f90919063ffffffff16565b9050600060066000848152602001908152602001600020549050818114614714576000600560008673ffffffffffffffffffffffffffffffffffffffff1673ffffffffffffffffffffffffffffffffffffffff168152602001908152602001600020838154811061469457fe5b9060005260206000200154905080600560008773ffffffffffffffffffffffffffffffffffffffff1673ffffffffffffffffffffffffffffffffffffffff16815260200190815260200160002083815481106146ec57fe5b9060005260206000200181905550816006600083815260200190815260200160002081905550505b600560008573ffffffffffffffffffffffffffffffffffffffff1673ffffffffffffffffffffffffffffffffffffffff1681526020019081526020016000208054809190600190036147669190614fc6565b5050505050565b600560008373ffffffffffffffffffffffffffffffffffffffff1673ffffffffffffffffffffffffffffffffffffffff168152602001908152602001600020805490506006600083815260200190815260200160002081905550600560008373ffffffffffffffffffffffffffffffffffffffff1673ffffffffffffffffffffffffffffffffffffffff1681526020019081526020016000208190806001815401808255809150509060018203906000526020600020016000909192909190915055505050565b600073ffffffffffffffffffffffffffffffffffffffff168273ffffffffffffffffffffffffffffffffffffffff1614156148d7576040517f08c379a00000000000000000000000000000000000000000000000000000000081526004018080602001828103825260208152602001807f4552433732313a206d696e7420746f20746865207a65726f206164647265737381525060200191505060405180910390fd5b6148e081613f14565b15614953576040517f08c379a000000000000000000000000000000000000000000000000000000000815260040180806020018281038252601c8152602001807f4552433732313a20746f6b656e20616c7265616479206d696e7465640000000081525060200191505060405180910390fd5b816001600083815260200190815260200160002060006101000a81548173ffffffffffffffffffffffffffffffffffffffff021916908373ffffffffffffffffffffffffffffffffffffffff1602179055506149ec600360008473ffffffffffffffffffffffffffffffffffffffff1673ffffffffffffffffffffffffffffffffffffffff168152602001908152602001600020614d69565b808273ffffffffffffffffffffffffffffffffffffffff16600073ffffffffffffffffffffffffffffffffffffffff167fddf252ad1be2c89b69c2b068fc378daa952ba7f163c4a11628f55a4df523b3ef60405160405180910390a45050565b6007805490506008600083815260200190815260200160002081905550600781908060018154018082558091505090600182039060005260206000200160009091929091909150555050565b6000614ab98473ffffffffffffffffffffffffffffffffffffffff16614dc9565b614ac65760019050614c80565b60008473ffffffffffffffffffffffffffffffffffffffff1663150b7a02614aec613f86565b8887876040518563ffffffff1660e01b8152600401808573ffffffffffffffffffffffffffffffffffffffff1673ffffffffffffffffffffffffffffffffffffffff1681526020018473ffffffffffffffffffffffffffffffffffffffff1673ffffffffffffffffffffffffffffffffffffffff16815260200183815260200180602001828103825283818151815260200191508051906020019080838360005b83811015614ba8578082015181840152602081019050614b8d565b50505050905090810190601f168015614bd55780820380516001836020036101000a031916815260200191505b5095505050505050602060405180830381600087803b158015614bf757600080fd5b505af1158015614c0b573d6000803e3d6000fd5b505050506040513d6020811015614c2157600080fd5b8101908080519060200190929190505050905063150b7a0260e01b7bffffffffffffffffffffffffffffffffffffffffffffffffffffffff1916817bffffffffffffffffffffffffffffffffffffffffffffffffffffffff1916149150505b949350505050565b600073ffffffffffffffffffffffffffffffffffffffff166002600083815260200190815260200160002060009054906101000a900473ffffffffffffffffffffffffffffffffffffffff1673ffffffffffffffffffffffffffffffffffffffff1614614d435760006002600083815260200190815260200160002060006101000a81548173ffffffffffffffffffffffffffffffffffffffff021916908373ffffffffffffffffffffffffffffffffffffffff1602179055505b50565b614d5e60018260000154614d7f90919063ffffffff16565b816000018190555050565b6001816000016000828254019250508190555050565b6000614dc183836040518060400160405280601e81526020017f536166654d6174683a207375627472616374696f6e206f766572666c6f770000815250614e14565b905092915050565b60008060007fc5d2460186f7233c927e7db2dcc703c0e500b653ca82273b7bfad8045d85a47060001b9050833f91506000801b8214158015614e0b5750808214155b92505050919050565b6000838311158290614ec1576040517f08c379a00000000000000000000000000000000000000000000000000000000081526004018080602001828103825283818151815260200191508051906020019080838360005b83811015614e86578082015181840152602081019050614e6b565b50505050905090810190601f168015614eb35780820380516001836020036101000a031916815260200191505b509250505060405180910390fd5b5060008385039050809150509392505050565b604051806101400160405280606081526020016060815260200160008019168152602001600080191681526020016000801916815260200160008152602001600073ffffffffffffffffffffffffffffffffffffffff1681526020016060815260200160008152602001600081525090565b828054600181600116156101000203166002900490600052602060002090601f016020900481019282601f10614f8757805160ff1916838001178555614fb5565b82800160010185558215614fb5579182015b82811115614fb4578251825591602001919060010190614f99565b5b509050614fc29190614ff2565b5090565b815481835581811115614fed57818360005260206000209182019101614fec9190614ff2565b5b505050565b61501491905b80821115615010576000816000905550600101614ff8565b5090565b9056fe436f6e74726163742069732061637469766520616e6420617661696c61626c6520666f722063616c6c73455243373231456e756d657261626c653a206f776e657220696e646578206f7574206f6620626f756e64734552433732313a207472616e7366657220746f206e6f6e20455243373231526563656976657220696d706c656d656e7465724552433732313a207472616e7366657220746f20746865207a65726f20616464726573734552433732313a206f70657261746f7220717565727920666f72206e6f6e6578697374656e7420746f6b656e4552433732313a20617070726f76652063616c6c6572206973206e6f74206f776e6572206e6f7220617070726f76656420666f7220616c6c4552433732313a2062616c616e636520717565727920666f7220746865207a65726f20616464726573734552433732313a206f776e657220717565727920666f72206e6f6e6578697374656e7420746f6b656e41646472657373206973205a65726f20616464726573732e20526571756972652056616c696420616464726573734552433732313a20617070726f76656420717565727920666f72206e6f6e6578697374656e7420746f6b656e4552433732313a207472616e73666572206f6620746f6b656e2074686174206973206e6f74206f776e4552433732314d657461646174613a2055524920717565727920666f72206e6f6e6578697374656e7420746f6b656e4f6e6c79204d616e75666163747572652043616e20437265617465204469616d6f6e644552433732313a20617070726f76616c20746f2063757272656e74206f776e65724552433732313a207472616e736665722063616c6c6572206973206e6f74206f776e6572206e6f7220617070726f766564455243373231456e756d657261626c653a20676c6f62616c20696e646578206f7574206f6620626f756e6473a165627a7a723058203dde8c68e85c4e3e80109d55beea041cf22305d13d5c84575fcf882c649e6e740029",
  "source": "pragma solidity ^0.5.0;\n\nimport '../contracts/Registration.sol';\nimport '../contracts/Access.sol';\nimport '../contracts/DiamondsToken.sol';\n\ncontract diamondOperations is diamondsToken,df_Access{\n    df_Registration internal registration;\n    df_Access internal access;\n    diamondsToken internal token;\n\nconstructor()\n public {\n  CEO = msg.sender;\n  }\n\n\n\nstruct Diamond {\n    string gemName;\n    string gemCountry;\n    bytes32 gemcolor;\n    bytes32 gemclarity;\n    bytes32 gemcut;\n    uint256 gemcarat;\n    address owner;\n    string status;\n    uint256 ethPriceM;\n    uint256 ethPriceR;\n  }\n  using SafeMath for uint256;\n\n  Diamond[] public diamonds;\n  string constant private STATUS_PENDING = \"Pending\";\n  string constant private STATUS_VERIFIED = \"Verified\";\n  uint256 internal _Price;\n\n///Events.\n event eventcreateDiamond(address _address, uint256 _diamondID);\n  event TransactionHistory(\n      uint256 _diamondID,\n      address _seller,\n      address _buyer,\n      uint256 _Price,\n      uint256 timestamp\n    );\n\n mapping(uint256 => bool) internal diamondExists;  //Check if Diamond Exists\n mapping(address => uint256) internal balances;      //Check this address has how many Diamonds\n mapping(uint256 => address) internal diamondIdToOwner; //Map Diamond ID to owner.\n mapping(uint256 => Diamond) internal diamondMetadata; //can we use mappig iterator?\n\nfunction createDiamond(\n    string memory _gemName,\n    string memory _gemCountry,\n    bytes32 _gemcolor,\n    bytes32 _gemclarity,\n    bytes32 _gemcut,\n    uint256 _gemcarat)\n    public\n    whenNotPaused{\n    require(registration._onlyManufacturer(), \"Only Manufacture Can Create Diamond\");\n    Diamond memory _diamond = Diamond(_gemName,_gemCountry,_gemcolor,_gemclarity,_gemcut,_gemcarat,msg.sender,STATUS_PENDING,0,0);\n    uint _diamondID = diamonds.push(_diamond);\n    token.diamondToken(msg.sender, _diamondID);\n    diamondExists[_diamondID] = true;\n    diamondMetadata[_diamondID] = _diamond;\n    emit eventcreateDiamond(msg.sender, _diamondID);\n  }\n\nfunction getPriceM(uint256 _gemcarat) internal view returns(uint256 convertedrate){\n      return conversionrateManufacture*_gemcarat;\n}\n\nfunction getPriceR(uint256 _gemcarat) internal view returns(uint256 convertedrate){\n      return conversionrateRetail*_gemcarat;\n}\n\nfunction VerifyDiamond(uint256 _diamondID)\n    public view\n    onlyAdminOrCEO\n    whenNotPaused{\n      require(diamondExists[_diamondID],\"Diamond Not Created\");\n      Diamond memory diamond = diamondMetadata[_diamondID];\n      diamond.status = STATUS_VERIFIED;\n      diamond.ethPriceM = getPriceM(diamond.gemcarat);\n      diamond.ethPriceR = getPriceR(diamond.gemcarat);\n    }\n\nfunction _isDiamondVerified(uint256 _diamondID) public view returns (bool) {\n      require(diamondExists[_diamondID],\"Diamond not created\");\n      return(keccak256(abi.encodePacked(diamondMetadata[_diamondID].status)) == keccak256(abi.encodePacked(STATUS_VERIFIED)));\n    }\n\nfunction _isManufacturer(address _address) public view returns (bool) {\n    require(registration._isRegistered(_address),\"User Not registered\");\n    return(keccak256(abi.encodePacked(registration._isUserType)) == keccak256(abi.encodePacked(\"Manufacturer\")));\n    }\n\nfunction _isRetailer(address _address) internal view returns (bool) {\n      require(registration._isRegistered(_address),\"User Not registered\");\n      return(keccak256(abi.encodePacked(registration._isUserType)) == keccak256(abi.encodePacked(\"Retailer\")));\n    }\n\nfunction _BuyfromManufacturer(\n      uint256 _diamondID,\n      address payable _seller\n      )\n      public payable\n      whenNotPaused{\n      require(_isDiamondVerified(_diamondID),\"Diamond is not verified\");\n      require(_isManufacturer(_seller),\"Seller is not manufacturer\");\n      Diamond storage diamond = diamondMetadata[_diamondID];\n      diamond.owner = msg.sender;\n      _Price = diamond.ethPriceM;\n      token.transferC(_seller,_Price);\n       _transferFrom(_seller, msg.sender, _diamondID);\n      emit TransactionHistory(_diamondID,_seller,msg.sender,_Price,now);\n  }\n\nfunction _BuyfromRetailer(\n      uint256 _diamondID,\n      address payable _seller\n      )\n      public payable\n      whenNotPaused{\n      require(_isDiamondVerified(_diamondID),\"Diamond is not verified\");\n      require(_isRetailer(_seller),\"Seller is not Retailer\");\n      Diamond storage diamond = diamondMetadata[_diamondID];\n      diamond.owner = msg.sender;\n      _Price = diamond.ethPriceM;\n      token.transferC(_seller,_Price);\n       _transferFrom(_seller, msg.sender, _diamondID);\n      emit TransactionHistory(_diamondID,_seller,msg.sender,_Price,now);\n  }\n\nfunction getDiamond(uint256 _diamondID)public view returns(\n  string memory,\n  string memory,\n  bytes32,\n  bytes32,\n  uint256,\n  address){\n  Diamond storage diamond = diamondMetadata[_diamondID];\n  return(diamond.gemName,diamond.gemCountry,diamond.gemclarity,diamond.gemcut,diamond.gemcarat,diamond.owner);\n  }\n\n  function ownerofToken(uint256 _diamondID) public view returns (address) {\n      require(diamondExists[_diamondID],\"Diamond is not created\");\n      return(ownerOf(_diamondID));\n  }\n}\n\n",
  "sourcePath": "/home/vinayjain/Projects/DiamondFactory/contracts/DiamondFactory.sol",
  "compiler": {
    "name": "solc",
    "version": "0.5.8+commit.23d335f2.Emscripten.clang"
  },
  "schemaVersion": "3.0.16",
  "updatedAt": "2019-12-13T13:51:19.760Z",
  "devdoc": {
    "methods": {
      "approve(address,uint256)": {
        "details": "Approves another address to transfer the given token ID The zero address indicates there is no approved address. There can only be one approved address per token at a given time. Can only be called by the token owner or an approved operator.",
        "params": {
          "to": "address to be approved for the given token ID",
          "tokenId": "uint256 ID of the token to be approved"
        }
      },
      "balanceOf(address)": {
        "details": "Gets the balance of the specified address.",
        "params": {
          "owner": "address to query the balance of"
        },
        "return": "uint256 representing the amount owned by the passed address"
      },
      "getApproved(uint256)": {
        "details": "Gets the approved address for a token ID, or zero if no address set Reverts if the token ID does not exist.",
        "params": {
          "tokenId": "uint256 ID of the token to query the approval of"
        },
        "return": "address currently approved for the given token ID"
      },
      "isApprovedForAll(address,address)": {
        "details": "Tells whether an operator is approved by a given owner.",
        "params": {
          "operator": "operator address which you want to query the approval of",
          "owner": "owner address which you want to query the approval of"
        },
        "return": "bool whether the given operator is approved by the given owner"
      },
      "name()": {
        "details": "Gets the token name.",
        "return": "string representing the token name"
      },
      "ownerOf(uint256)": {
        "details": "Gets the owner of the specified token ID.",
        "params": {
          "tokenId": "uint256 ID of the token to query the owner of"
        },
        "return": "address currently marked as the owner of the given token ID"
      },
      "safeTransferFrom(address,address,uint256)": {
        "details": "Safely transfers the ownership of a given token ID to another address If the target address is a contract, it must implement {IERC721Receiver-onERC721Received}, which is called upon a safe transfer, and return the magic value `bytes4(keccak256(\"onERC721Received(address,address,uint256,bytes)\"))`; otherwise, the transfer is reverted. Requires the msg.sender to be the owner, approved, or operator",
        "params": {
          "from": "current owner of the token",
          "to": "address to receive the ownership of the given token ID",
          "tokenId": "uint256 ID of the token to be transferred"
        }
      },
      "safeTransferFrom(address,address,uint256,bytes)": {
        "details": "Safely transfers the ownership of a given token ID to another address If the target address is a contract, it must implement {IERC721Receiver-onERC721Received}, which is called upon a safe transfer, and return the magic value `bytes4(keccak256(\"onERC721Received(address,address,uint256,bytes)\"))`; otherwise, the transfer is reverted. Requires the _msgSender() to be the owner, approved, or operator",
        "params": {
          "_data": "bytes data to send along with a safe transfer check",
          "from": "current owner of the token",
          "to": "address to receive the ownership of the given token ID",
          "tokenId": "uint256 ID of the token to be transferred"
        }
      },
      "setApprovalForAll(address,bool)": {
        "details": "Sets or unsets the approval of a given operator An operator is allowed to transfer all tokens of the sender on their behalf.",
        "params": {
          "approved": "representing the status of the approval to be set",
          "to": "operator address to set the approval"
        }
      },
      "supportsInterface(bytes4)": {
        "details": "See {IERC165-supportsInterface}.     * Time complexity O(1), guaranteed to always use less than 30 000 gas."
      },
      "symbol()": {
        "details": "Gets the token symbol.",
        "return": "string representing the token symbol"
      },
      "tokenByIndex(uint256)": {
        "details": "Gets the token ID at a given index of all the tokens in this contract Reverts if the index is greater or equal to the total number of tokens.",
        "params": {
          "index": "uint256 representing the index to be accessed of the tokens list"
        },
        "return": "uint256 token ID at the given index of the tokens list"
      },
      "tokenOfOwnerByIndex(address,uint256)": {
        "details": "Gets the token ID at a given index of the tokens list of the requested owner.",
        "params": {
          "index": "uint256 representing the index to be accessed of the requested tokens list",
          "owner": "address owning the tokens list to be accessed"
        },
        "return": "uint256 token ID at the given index of the tokens list owned by the requested address"
      },
      "tokenURI(uint256)": {
        "details": "Returns an URI for a given token ID. Throws if the token ID does not exist. May return an empty string.",
        "params": {
          "tokenId": "uint256 ID of the token to query"
        }
      },
      "totalSupply()": {
        "details": "Gets the total amount of tokens stored by the contract.",
        "return": "uint256 representing the total amount of tokens"
      },
      "transferFrom(address,address,uint256)": {
        "details": "Transfers the ownership of a given token ID to another address. Usage of this method is discouraged, use {safeTransferFrom} whenever possible. Requires the msg.sender to be the owner, approved, or operator.",
        "params": {
          "from": "current owner of the token",
          "to": "address to receive the ownership of the given token ID",
          "tokenId": "uint256 ID of the token to be transferred"
        }
      }
    }
  },
  "userdoc": {
    "methods": {
      "pause()": {
        "notice": "Creating Pause function; so that any bug hits smart contract can be paused instead of being self-destructed"
      }
    }
  }
}